:100000000C9434000C9451000C9451000C94510049
:100010000C9451000C9451000C9451000C9451001C
:100020000C9451000C9451000C9451000C9451000C
:100030000C9451000C9451000C9451000C945100FC
:100040000C9451000C9451000C9451000C945100EC
:100050000C9451000C9451000C9451000C945100DC
:100060000C9451000C94510011241FBECFEFD8E026
:10007000DEBFCDBF11E0A0E0B1E0E2E6F4E002C0F7
:1000800005900D92A633B107D9F721E0A6E3B1E0C0
:1000900001C01D92A634B207E1F70E9497010C94AB
:1000A0002F020C9400009091C00095FFFCCF80932C
:1000B000C60008950C945300CF93DF93EC0189910F
:1000C000882319F00E945300FACFDF91CF91089551
:1000D000672B682B692B19F483E191E002C08EE055
:1000E00091E00C945C008AE00C9453000F9300E1C3
:1000F00020E04AE351E00E94BC008AE391E00F91C6
:100100000C945C000F930AE020E04AE351E00E9467
:10011000BC008AE391E00F910C945C004AE351E04B
:100120000E9482018AE391E00C945C008091360188
:1001300090913701A0913801B0913901892B8A2B18
:100140008B2BB9F41092C50087E68093C40088E138
:100150008093C10086E08093C20081E090E0A0E03F
:10016000B0E08093360190933701A0933801B093AB
:10017000390180E091E008954F925F926F927F92F3
:100180008F929F92AF92BF92EF92FF920F93CF9375
:10019000DF93CDB7DEB729970FB6F894DEBF0FBE59
:1001A000CDBF2B013C017A0129870A3009F493C0A5
:1001B000672B682B692B09F480C000E1812C912CFE
:1001C000A12C90E1B92E19821A821B821C82802FE9
:1001D00090E0A0E0B0E08D839E83AF83B887C30139
:1001E000B201A50194010E94F3010A3009F5898149
:1001F0009A81AB81BC81892B8A2B8B2B29F4211509
:1002000031054105510539F1F7019985E90FF11DD6
:1002100097FDFA9580E3820F80839F5F998781E045
:1002200090E0A0E0B0E089839A83AB83BC8313C0E5
:1002300099859F5FF701A985EA0FF11DA7FDFA9542
:100240002A3031054105510510F087E301C080E3F4
:10025000820F80839987C501B4010E94E301461A89
:10026000570A680A790AC501B4012D813E814F8180
:1002700058850E94F30149015A01232B242B252B79
:1002800009F0ADCFF701B985EB0FF11DB7FDFA9578
:10029000108229960FB6F894DEBF0FBECDBFDF9156
:1002A000CF910F91FF90EF90BF90AF909F908F9064
:1002B0007F906F905F904F90089580E3A985A8305C
:1002C0000CF7F7019985E90FF11D97FDFA958083E9
:1002D0009F5F9987F3CF672B682B692B59F4F70140
:1002E000B985EB0FF11DB7FDFA9580E38083BF5F01
:1002F000B987C8CF812C8AEC982E8AE9A82E8BE387
:10030000B82E61CF0F9397FF0CC02DE2FA01208326
:1003100090958095709561957F4F8F4F9F4F21E00D
:1003200001C020E00AE00E94BC000F91089584E320
:1003300091E00E949600259A89E191E00E945C007C
:1003400084E291E00E945C004AE351E062ED74E0D7
:1003500080E090E00E9482018AE391E00E945C00CC
:100360000AE020E04AE351E065ED7DED80E090E0B9
:100370000E94BC008AE391E00E945C0000E120E062
:100380004AE351E06FEE7DEC8BEA90E00E94BC0006
:100390008AE391E00E945C000E9473002D9A2FEF87
:1003A00083ED90E3215080409040E1F700C00000D1
:1003B0002D982FEF83ED90E3215080409040E1F79E
:1003C00000C00000B9CFDB018F939F930E941502FC
:1003D000BF91AF91A29F800D911DA39F900DB29FE1
:1003E000900D11240895A1E21A2EAA1BBB1BFD013A
:1003F0000DC0AA1FBB1FEE1FFF1FA217B307E40704
:10040000F50720F0A21BB30BE40BF50B661F771F5B
:10041000881F991F1A9469F760957095809590953B
:100420009B01AC01BD01CF0108950E942002A59F50
:10043000900DB49F900DA49F800D911D11240895DF
:10044000A29FB001B39FC001A39F700D811D112415
:10045000911DB29F700D811D1124911D0895F89476
:02046000FFCFCC
:1004620068005A008E0082005C007600730074728D
:1004720075650066616C73650054657374207874E9
:100482006F610A00313233343536373839414243ED
:060492004445460A00008B
:00000001FF
