:100000000C945B000C9478000C9478000C947800AD
:100010000C9478000C9478000C9478000C94780080
:100020000C9478000C9478000C9478000C94780070
:100030000C9478000C9478000C9478000C94780060
:100040000C9478000C9478000C9478000C94780050
:100050000C9478000C9478000C9478000C94780040
:100060000C9478000C9478007B0282028A02900241
:100070006702670267026702670267026702980207
:100080009F02A602AD02B402BB02C202C902D002A4
:10009000D702DE02E502EC02F302FA0201030803D2
:1000A0000F0316031D03C704D004DA04E30401059B
:1000B000EC04F604FF0411241FBECFEFD8E0DEBF2E
:1000C000CDBF11E0A0E0B1E0E6E4FDE102C00590A3
:1000D0000D92A03DB107D9F724E0A0EDB1E001C039
:1000E0001D92A638B207E1F70E94C50C0C94A10E30
:1000F0000C9400001092E0031092E1031092E203CE
:100100001092E303E4EEF3E083E0808380E48183F4
:10011000828313821092D8031092D9031092DA03CB
:100120001092DB031092D4031092D5031092D603E1
:100130001092D7031092DC031092DD031092DE03BD
:100140001092DF0308950E94470B80E00C94470B48
:100150002F923F924F925F926F927F928F929F92D7
:10016000AF92BF92CF92DF92EF92FF920F931F93C5
:10017000CF93DF93CDB7DEB77C012DB63EB680912D
:10018000D0039091D103A091D203B091D303892BD6
:100190008A2B8B2B71F40E947A0081E090E0A0E022
:1001A000B0E08093D0039093D103A093D203B09397
:1001B000D3031092E0031092E1031092E203109235
:1001C000E3030E94830B90E0A0E0B0E00097A1055C
:1001D000B105B9F38093DC039093DD03A093DE03B4
:1001E000B093DF03CDB6DEB60DB71EB7081B190BF3
:1001F0000FB6F8941EBF0FBE0DBF0F5F1F4F40908C
:10020000E0035090E1036090E2037090E303F80193
:10021000E40DF51D8083D301C2010296A11DB11D1D
:100220008093E0039093E103A093E203B093E30390
:100230000E94830B2FEF421A520A620A720AF801D7
:10024000E40DF51D80834090E0035090E103609041
:10025000E2037090E303D301C2010196A11DB11D19
:100260008093E0039093E103A093E203B093E30350
:100270000E94830BF801E40DF51D80834090DC03A0
:100280005090DD036090DE037090DF038091E00307
:100290009091E103A091E203B091E30384159505E9
:1002A000A605B705E8F40E94830B4091E003509146
:1002B000E1036091E2037091E3032A013B013FEF08
:1002C000431A530A630A730A4092E0035092E1030F
:1002D0006092E2037092E303F801E40FF51FCDCFC3
:1002E000F8018281823209F4C5C0D0F4803291F1E4
:1002F000813209F0AEC0F8016381748185819681F5
:100300000E945F0D262F572F482F392F6781708548
:10031000818592850E945F0D4B015C01822F28C070
:10032000843271F0F8F0853209F093C04091D40323
:100330005091D5036091D6037091D70380E071C0CE
:100340004091D4035091D5036091D6037091D703A7
:1003500023E02EC0F801818160E070E0803221F05E
:1003600083E303C064EE73E08CEC0E94A3007CC0C6
:10037000482E512C612C712C481459046A047B04BA
:1003800030F4F701E80FF11D10828F5FF1CF209359
:10039000D8035093D9034093DA033093DB032093BF
:1003A000D4035093D5034093D6033093D70336C07C
:1003B000822F90E0A0E0B0E084159505A605B70572
:1003C00070F4F701E40FF51FD801A20FB11D9C9145
:1003D00090832F5F4F5F5F4F6F4F7F4FE9CF409309
:1003E000D4035093D5036093D6037093D7038091C1
:1003F000D8039091D903A091DA03B091DB038A016D
:100400009B01081B190B2A0B3B0B80169106A206B9
:10041000B30621F4F701E40FF51F108260E070E0ED
:10042000A3CF082F10E020E030E0041715072607BF
:10043000370730F4F701E80FF11D10828F5FF1CF1D
:100440000E947A008CEC0E94470B80E00E94470BD0
:100450000BC08CEC0E94470B13E01093E40321E4E3
:100460002093E5032093E6030FB6F894DEBE0FBE9B
:10047000CDBE9FCE60E070E08CEC0E94A30080E4D3
:100480000FB6F8943EBE0FBE2DBEDF91CF911F91E7
:100490000F91FF90EF90DF90CF90BF90AF909F9023
:1004A0008F907F906F905F904F903F902F90089526
:1004B00080E20E942D059093E9038093E8030C9459
:1004C000B005EF92FF921F93CF93DF93EC01188159
:1004D000112309F4ACC28FEF810F8F3208F0B4C042
:1004E000812F90E0FC013197EF31F10580F7EC5C52
:1004F000FF4F0C94590D8091E8039091E9030E94FD
:100500005E0506C08091E8039091E9030E9404060D
:100510002196DDCF8091E8039091E9030E94EC09D8
:100520008091E8039091E9030E945E05EB01CFCF33
:100530008091E8039091E9030E941F06E9CF809122
:10054000E8039091E9030E943606E2CF8091E80328
:100550009091E9030E945B06DBCF8091E8039091C4
:10056000E9030E948006D4CF8091E8039091E903CB
:100570000E94A506CDCF8091E8039091E9030E94E7
:10058000BF06C6CF8091E8039091E9030E94D5068B
:10059000BFCF8091E8039091E9030E94EB06B8CFAA
:1005A0008091E8039091E9030E941007B1CF8091F8
:1005B000E8039091E9030E943B07AACF8091E803EA
:1005C0009091E9030E945D07A3CF8091E803909189
:1005D000E9030E948E079CCF8091E8039091E90384
:1005E0000E94B40795CF8091E8039091E9030E949F
:1005F000DE078ECF8091E8039091E9030E940808FE
:1006000087CF8091E8039091E9030E94380880CF5A
:100610008091E8039091E9030E94680879CF809166
:10062000E8039091E9030E94980872CF8091E80353
:100630009091E9030E94C8086BCF8091E8039091E4
:10064000E9030E94F80864CF80ED810F803240F406
:10065000803108F46FC160EC610F862F806F6AC132
:1006600060EB610F6032C0F4603110F4162F04C0EB
:1006700060EA610F162F106F8091E8039091E903F3
:100680000E945E05672B682B692B09F011E0C10FF2
:10069000D11D17FDDA951BCF60E9610F603238F488
:1006A0008091E8039091E9030E94280931CF80E707
:1006B000810F8830A8F4612F6770462F50E06430B6
:1006C00020F0445051094C6F5F6F052E000C660BF3
:1006D000770B8091E8039091E9030E944D0518CFB4
:1006E00088E6810F883048F4612F67708091E803B5
:1006F0009091E9030E946D0A0BCF80E6810F88304C
:1007000048F4612F67708091E8039091E9030E949B
:10071000B50AFECE88E5810F883048F4612F6770F6
:100720008091E8039091E9030E94F40AF1CE193D0B
:1007300009F4A9C008F044C0143B09F482C0E0F4F5
:10074000CE0102967C01113B09F463C020F4103BFA
:1007500009F46FC058C1123B09F463C0133B09F0A0
:1007600052C141E050E060E070E08091E803909178
:10077000E9030E944D055DC0153D09F47CC0C8F435
:10078000CE0102967C011F3B09F46CC0143D09F0B8
:100790003AC18981C80FD11D87FDDA95AE01DD0F01
:1007A000660B770B8091E8039091E9030E944D0559
:1007B00060C0173D09F46EC0183D09F482C023C122
:1007C0001E3D09F48DC060F41B3D09F489C008F496
:1007D0006CC01C3D09F45EC01D3D09F472C013C11C
:1007E000133E09F49AC070F4103E09F4A0C0113E03
:1007F00009F009C189819A81982789279827C80F0C
:10080000D91F65CE173E09F49AC01F3F09F4ACC04A
:10081000FAC069818091E8039091E9030E94B50ACA
:1008200028C069818091E8039091E9030E94F40A4D
:1008300020C069818091E8039091E9030E946D0ACC
:1008400018C04FEF5FEFBA018091E8039091E90380
:100850000E944D0569818091E8039091E9030E940F
:100860006D0ACFC069818091E8039091E9030E94ED
:100870009909E7012CCE49815A81542745275427ED
:100880004C0F5D1F19C04981042E000C550B660BDF
:10089000770B04C0498150E060E070E08091E8038C
:1008A0009091E9030E944D05ACC01A3D51F4498175
:1008B0005A81542745275427052E000C660B770BC9
:1008C00007C049815A8154274527542760E070E0CA
:1008D0008091E8039091E9030E944D052396F7CD9E
:1008E00049815A8154274527542760E070E0BA01B6
:1008F000552744278B819C81982789279827A0E03A
:10090000B0E0482B592B6A2B7B2B8091E803909108
:10091000E9030E944D052596DACD8091E803909178
:10092000E9030E945E05672B682B692B11F489810E
:1009300001C082E0C80FD11D87FDDA95C8CDE980DE
:10094000FA80FE24EF24FE24AE014D5F5F4F052E9A
:10095000000C660B770B8091E8039091E9030E94ED
:100960004D05CE0DDF1DB3CD898190E8980F9830ED
:1009700008F047C0E82FEF708E2F90E08830910587
:1009800008F03FC0FC01ED5AFF4F0C94590D8091C7
:10099000E8039091E9030E945E050E943F0B31C07D
:1009A0008091E8039091E9030E945E05862F0E94E2
:1009B000470B27C08091E8039091E9030E945E05F0
:1009C0000E944F0B1EC08091E8039091E9030E94A2
:1009D0005E050E94570B15C08091E8039091E903D2
:1009E0000E945E05CB010E945F0B0BC08091E80363
:1009F0009091E9030E945E050E94670B02C00E946D
:100A00006F0B229664CD81E891E00E945F0B612F0D
:100A100070E080E090E00E94670B8AE891E00E941D
:100A20005F0B0E946F0B80E090E00E94A10EDF91AF
:100A3000CF911F91FF90EF900895242F30E0260F63
:100A4000311D2830310524F0440F4E5F481B02C091
:100A5000481B4E5F842F860F0895882339F09FEF3F
:100A600090936E0490936D0480936F048DEE93E0E9
:100A7000089508958F579F4FFC016081062E000C4A
:100A8000770B6F5F7F4F072E000C880B990B089533
:100A90008E579F4FFC0180810895FC01EF57FF4F57
:100AA00020812F5F2083FC0134E02302E00DF11D43
:100AB000112440835183628373830895FC01EF57AF
:100AC000FF4F20813FEF320F3083FC0134E02302DF
:100AD000E00DF11D1124608171818281938108955F
:100AE000FC01EF57FF4F61E070E080E090E0208173
:100AF0002F3F19F060E070E0CB0108950895FC01EC
:100B0000628161506283862F660F990BAA0BBB0B23
:100B100080959095A095B095BC01CD01662797FD75
:100B200063957727882799270895DC01ED91FC913B
:100B3000119712968C91B4E08B02E00DF11D1124F7
:100B400060817181828193810895DC01ED91FC9136
:100B50001197EF57FF4F90819F5F12969C930895D6
:100B60009093EB038093EA038AEE93E00E94A5053D
:100B70008AEE93E008959093EB038093EA038AEE64
:100B800093E00E94A5058AEE93E00895CF92DF924C
:100B9000EF92FF92CF93DF93EC010E94A5058BE5C6
:100BA0000E94470B8A8181508A8387FD14C0E881A7
:100BB000F98194E08902E00DF11D1124C080D180FB
:100BC000E280F38088E891E00E945F0BC701B601E4
:100BD0000E94670BE7CF88EA91E0DF91CF91FF9009
:100BE000EF90DF90CF900C945F0BFC01EF57FF4F1D
:100BF0002081FC0134E02302E00DF11D112460810D
:100C00007181828193810895FC01EF57FF4F20810C
:100C1000DC0134E02302A00DB11D11244D915D9142
:100C20006D917C912F5F2083FC0134E02302E00D65
:100C3000F11D112440835183628373830895FC0165
:100C4000EF57FF4F2081FC0134E02302E00DF11D3E
:100C5000112480819181A281B38180959095A09586
:100C6000B09580839183A283B3830895FC01EF57ED
:100C7000FF4F20813FEF320F3083FC0144E034020C
:100C8000E00DF11D1124DC0134E02302A00DB11DA3
:100C9000112440815181628173818D919D910D90CC
:100CA000BC91A02D84239523A623B7238083918311
:100CB000A283B3830895FC01EF57FF4F20813FEFDC
:100CC000320F3083FC0144E03402E00DF11D1124A9
:100CD000DC0134E02302A00DB11D112440815181BB
:100CE000628173818D919D910D90BC91A02D842B7B
:100CF000952BA62BB72B80839183A283B383089572
:100D0000FC01EF57FF4F20813FEF320F3083FC0192
:100D100044E03402E00DF11D1124DC0134E0230233
:100D2000A00DB11D112440815181628173818D918B
:100D30009D910D90BC91A02D84279527A627B727BC
:100D400080839183A283B3830895FC01EF57FF4F03
:100D50002081FC0134E02302E00DF11D112480818B
:100D60009181A281B381B095A095909581959F4F77
:100D7000AF4FBF4F80839183A283B3830895FC015B
:100D8000EF57FF4F2081FC0134E02302E00DF11DFD
:100D9000112480819181A281B3810196A11DB11D91
:100DA00080839183A283B3830895FC01EF57FF4FA3
:100DB0002081FC0134E02302E00DF11D112480812B
:100DC0009181A281B3810197A109B10980839183A7
:100DD000A283B3830895FC01EF57FF4F20813FEFBB
:100DE000320F3083FC0144E03402E00DF11D112488
:100DF000DC0134E02302A00DB11D1124408151819A
:100E0000628173818D919D910D90BC91A02D840F75
:100E1000951FA61FB71F80839183A283B383089574
:100E20000F931F93FC01EF57FF4F20813FEF320FCD
:100E30003083FC0104E03002E00DF11D1124DC01DF
:100E400014E02102A00DB11D112440815181628165
:100E500073818D919D910D90BC91A02D8A019B0174
:100E6000081B190B2A0B3B0B00831183228333834E
:100E70001F910F910895FC01EF57FF4F20813FEF25
:100E8000320F3083FC0144E03402E00DF11D1124E7
:100E9000DC0134E02302A00DB11D11242081318139
:100EA000428153816D917D918D919C910E94080D9D
:100EB00060837183828393830895CF93DF93FC01D2
:100EC000EF57FF4F20816FEF620F6083FC0134E02A
:100ED0002302E00DF11D11242081318142815381D3
:100EE000211531054105510531F48BEA91E0DF917F
:100EF000CF910C945F0BEC0174E06702C00DD11D23
:100F00001124688179818A819B810E943A0D28830E
:100F100039834A835B83DF91CF910895CF93DF9329
:100F2000FC01EF57FF4F20813FEF320F3083EC0180
:100F300044E03402C00DD11D1124FC0134E0230231
:100F4000E00DF11D1124688179818A819B812081C6
:100F50003181428153810E943A0D688379838A836B
:100F60009B83DF91CF9108950F931F93FC01EF575F
:100F7000FF4F20813FEF320F3083FC0104E030024D
:100F8000E00DF11D1124DC0114E02102A00DB11DC2
:100F9000112440815181628173818A019B010C90EF
:100FA00004C0000F111F221F331F0A94D2F70083C1
:100FB0001183228333831F910F9108950F931F9301
:100FC000FC01EF57FF4F20813FEF320F3083FC01D0
:100FD00004E03002E00DF11D1124DC0114E02102D7
:100FE000A00DB11D112440815181628173818A015C
:100FF0009B010C9004C035952795179507950A9489
:10100000D2F700831183228333831F910F910895B8
:101010000F931F93FC01EF57FF4F20813FEF320FDB
:101020003083FC0144E03402E00DF11D1124DC01A9
:1010300034E02302A00DB11D112441E050E060E036
:1010400070E00D911D912D913C9180819181A28143
:10105000B381081719072A073B0719F040E050E051
:10106000BA0140835183628373831F910F91089566
:101070000F931F93FC01EF57FF4F20813FEF320F7B
:101080003083FC0144E03402E00DF11D1124DC0149
:1010900034E02302A00DB11D112441E050E060E0D6
:1010A00070E00D911D912D913C9180819181A281E3
:1010B000B381081719072A073B0719F440E050E0ED
:1010C000BA0140835183628373831F910F91089506
:1010D0000F931F93FC01EF57FF4F20813FEF320F1B
:1010E0003083FC0144E03402E00DF11D1124DC01E9
:1010F00034E02302A00DB11D112441E050E060E076
:1011000070E00D911D912D913C9180819181A28182
:10111000B38180179107A207B3071CF040E050E0AD
:10112000BA0140835183628373831F910F910895A5
:101130000F931F93FC01EF57FF4F20813FEF320FBA
:101140003083FC0144E03402E00DF11D1124DC0188
:1011500034E02302A00DB11D112441E050E060E015
:1011600070E00D911D912D913C9180819181A28122
:10117000B381081719072A073B071CF040E050E02D
:10118000BA0140835183628373831F910F91089545
:101190000F931F93FC01EF57FF4F20813FEF320F5A
:1011A0003083FC0144E03402E00DF11D1124DC0128
:1011B00034E02302A00DB11D112441E050E060E0B5
:1011C00070E00D911D912D913C9180819181A281C2
:1011D000B381081719072A073B071CF440E050E0C9
:1011E000BA0140835183628373831F910F910895E5
:1011F0000F931F93FC01EF57FF4F20813FEF320FFA
:101200003083FC0144E03402E00DF11D1124DC01C7
:1012100034E02302A00DB11D112441E050E060E054
:1012200070E00D911D912D913C9180819181A28161
:10123000B38180179107A207B3071CF440E050E088
:10124000BA0140835183628373831F910F91089584
:10125000CF92DF92EF92FF920F931F93CF93DF9382
:10126000FC01862F83708F010F571F4FD8019C916F
:101270009F01B4E09B02200D311D1124E901C880BB
:10128000D980EA80FB809150292F280F91E0920F9E
:10129000AF01D4E09D02400D511D112464FBAA272B
:1012A000A0F9B0E096E0AA0FBB1F9A95E1F7962F40
:1012B00096959695937038E0939FB00111246A2B10
:1012C000862B082E000C990BAA0BBB0BEA01888316
:1012D0009983AA83BB8382E0820FDF01D4E08D0271
:1012E000A00DB11D1124CD92DD92ED92FC921397C9
:1012F00093E0920FD8019C93DF01C4E09C02A00D03
:10130000B11D1124E058FF4F4081042E000C550BF5
:10131000660B770B4D935D936D937C93139790833E
:10132000DF91CF911F910F91FF90EF90DF90CF90C1
:101330000895CF92DF92EF92FF929C01862F8770E3
:10134000F901EF57FF4F9081D90144E09402A00DBD
:10135000B11D1124CD90DD90ED90FC909150980F2F
:1013600041E0490FD90154E04502A00DB11D1124FF
:10137000462F4877482B042E000C550B660B770B35
:101380004D935D936D937C93139782E0890FD90100
:1013900044E08402A00DB11D1124CD92DD92ED92A6
:1013A000FC9213979D5F9083D90154E09502A00DA4
:1013B000B11D112431974081042E000C550B660B92
:1013C000770B4D935D936D937C9313979083FF9070
:1013D000EF90DF90CF9008958F929F92AF92BF923F
:1013E000CF92DF92EF92FF92CF93DF939C01DC01CB
:1013F000A058BF4F8C91F90164E08602E00DF11D09
:10140000112438979081892F8695869586958770C7
:10141000492F4770F901EF57FF4F96FB552750F9B9
:1014200096FF0FC090816FEF690F6083E90174E050
:101430009702C00DD11D112488809980AA80BB809D
:1014400003C0812C912C54019081E90164E0960243
:10145000C00DD11D112468816C936FEF690FD90104
:1014600074E06702A00DB11D1124CD90DD90ED90C8
:10147000FC909350941B981B642F70E0680F711DB3
:10148000683071050CF0941B9083552371F08081B6
:101490008F5F8083D90194E08902A00DB11D1124D2
:1014A0008D929D92AD92BC92139780818F5F8083C5
:1014B000F90164E08602E00DF11D1124C082D182A1
:1014C000E282F382DF91CF91FF90EF90DF90CF9097
:1014D000BF90AF909F908F9008950F931F93CF93DD
:1014E000DF938C01862FF801E058FF4FC0810C2E4E
:1014F000000CDD0BFE013297EE0FFF1FEE0FFF1FFA
:10150000E00FF11F6081462F4770669566956695DE
:1015100067700E941D05F801EF57FF4F90812FEF74
:10152000290F2083C81BD109CC0FDD1FCC0FDD1F75
:10153000C00FD11FF80184E09802E00DF11D1124C5
:10154000488159816A817B8180819181A281B381A7
:10155000840F951FA61FB71F88839983AA83BB8317
:10156000DF91CF911F910F9108950F931F93CF9308
:10157000DF938C01862FF801E058FF4FC0810C2EBD
:10158000000CDD0BFE013297EE0FFF1FEE0FFF1F69
:10159000E00FF11F6081462F47706695669566954E
:1015A00067700E941D05C81BD109CC0FDD1FCC0F31
:1015B000DD1FC00FD11F488159816A817B81F801ED
:1015C000EF57FF4F80818F5F8083F80194E089029D
:1015D000E00DF11D11244083518362837383DF91F9
:1015E000CF911F910F9108950F931F93CF93DF9386
:1015F0008C01862FF801E058FF4FC0810C2E000CA3
:10160000DD0BFE013297EE0FFF1FEE0FFF1FE00F05
:10161000F11F6081462F47706695669566956770E5
:101620000E941D05F801EF57FF4F90812FEF290F02
:101630002083F80124E09202E00DF11D1124408185
:10164000518162817381C81BD109CC0FDD1FCC0F82
:10165000DD1FC00FD11F488359836A837B83DF91CD
:10166000CF911F910F9108958DEB91E00E94010C95
:101670000C943A0B90937104809370040895E09158
:101680007004F09171040190F081E02D0994E091D3
:101690007004F09171040280F381E02D0994E091CF
:1016A0007004F09171040480F581E02D0994E091BB
:1016B0007004F09171040680F781E02D0994E091A7
:1016C0007004F09171040084F185E02D0994E0919B
:1016D0007004F09171040284F385E02D0994E09187
:1016E0007004F09171040484F585E02D0994109242
:1016F000C50087E68093C40088E18093C10086E03E
:101700008093C20008958091C00087FFFCCF809134
:10171000C60008959091C00095FFFCCF8093C6004D
:101720000895CF93DF93EC018991882319F00E94EB
:101730008A0BFACFDF91CF910895EF92FF920F932A
:101740001F93CF930E94830B882381F090E00E9427
:10175000800D7C0181E0C1E0C80F8701080F111DD9
:101760000E94830BF80180838C2FF5CF80E090E0FE
:10177000CF911F910F91FF90EF9008959091C0002D
:1017800095FFFCCF8093C60008950C94BE0BCF93B9
:10179000DF93EC018991882319F00E94BE0BFACFE8
:1017A000DF91CF910895672B682B692B19F48AEC90
:1017B00091E002C085EC91E00C94C70B8AE00C9498
:1017C000BE0B0F9300E120E046E754E00E94270C97
:1017D00086E794E00F910C94C70B0F930AE020E08A
:1017E00046E754E00E94270C86E794E00F910C94A2
:1017F000C70B46E754E00E94B00C86E794E00C94D7
:10180000C70B8091720490917304A0917404B091FD
:101810007504892B8A2B8B2BB9F41092C50087E6AF
:101820008093C40088E18093C10086E08093C20069
:1018300081E090E0A0E0B0E08093720490937304A4
:10184000A0937404B093750480E091E008953F92F2
:101850004F925F926F927F928F929F92AF92BF92C0
:10186000CF92DF92EF92FF920F931F93CF93DF936C
:101870004B015C01EA01122F0A3039F0C12CD12C46
:10188000E12C90E1F92E00E107C0C12C8AECD82EA2
:101890008AE9E82E8BE3F82E81149104A104B104A7
:1018A00089F40695202F30E040E3812F012E000CB3
:1018B000990B82179307ECF5FE01E80FF91F40839F
:1018C0001F5FF3CF33243394310E402E512C612C03
:1018D000712CC501B401A70196010E94180D8FEF6C
:1018E000830D082E000C990B132DFE01E80FF91F34
:1018F0000A3039F02A3031054105510510F067E30F
:1019000001C060E3620F6083C701B6010E94080D49
:10191000861A970AA80AB90AC701B601A30192015B
:101920000E94180D69017A013394232B242B252B57
:1019300081F6C10FD11D17FDDA951882DF91CF9185
:101940001F910F91FF90EF90DF90CF90BF90AF90DD
:101950009F908F907F906F905F904F903F900895F1
:101960000F9397FF0CC02DE2FA012083909580958C
:10197000709561957F4F8F4F9F4F21E001C020E010
:101980000AE00E94270C0F910895CF930E94770BD5
:101990000E94340B80ED91E00E94A800C82F803493
:1019A00039F584E191E00E945F0B8CEB91E00E949D
:1019B0005F0B88E291E00E945F0B88E391E00E9458
:1019C0005F0B0E946F0B85E491E00E945F0B0E9409
:1019D0006F0B80ED91E00E94580280ED91E00E9433
:1019E00061028CEC0E94470B80E00E94470BD2CF33
:1019F00082E791E00E945F0B6C2F70E080E090E046
:101A00000E94670B0E946F0B8FEF9FEFCF9108959D
:101A1000DB018F939F930E94660DBF91AF91A29FB0
:101A2000800D911DA39F900DB29F900D11240895DC
:101A3000A1E21A2EAA1BBB1BFD010DC0AA1FBB1FD2
:101A4000EE1FFF1FA217B307E407F50720F0A21B44
:101A5000B30BE40BF50B661F771F881F991F1A94B1
:101A600069F760957095809590959B01AC01BD01DB
:101A7000CF010895052E97FB1EF400940E94510D8E
:101A800057FD07D00E94180D07FC03D04EF40C94AC
:101A9000510D50954095309521953F4F4F4F5F4FD9
:101AA000089590958095709561957F4F8F4F9F4FCA
:101AB0000895EE0FFF1F0590F491E02D099469271A
:101AC0009627692778278727782708950E94710D20
:101AD000A59F900DB49F900DA49F800D911D112482
:101AE0000895A29FB001B39FC001A39F700D811DF7
:101AF0001124911DB29F700D811D1124911D089517
:101B00000F931F93CF93DF938230910510F482E0FF
:101B100090E0E0918404F091850420E030E0A0E0C2
:101B2000B0E0309719F1408151810281138148174B
:101B30005907C8F08417950769F4109731F0129689
:101B40000C93129713961C9327C000938404109350
:101B5000850422C02115310519F04217530718F4E6
:101B60009A01BD01EF01DF01F801DBCF211531053D
:101B7000F9F0281B390B2430310580F48A819B81D0
:101B80006115710521F0FB019383828304C090935A
:101B9000850480938404FE01329644C0FE01E20F66
:101BA000F31F8193919322503109398328833AC0DE
:101BB0002091820430918304232B41F42091100161
:101BC00030911101309383042093820420910E01FF
:101BD00030910F012115310541F42DB73EB74091E9
:101BE000120150911301241B350BE0918204F091F6
:101BF0008304E217F307A0F42E1B3F0B28173907C5
:101C000078F0AC014E5F5F4F2417350748F04E0F58
:101C10005F1F50938304409382048193919302C089
:101C2000E0E0F0E0CF01DF91CF911F910F91089597
:101C3000CF93DF93009709F481C0FC0132971382A0
:101C40001282A0918404B0918504109781F42081C0
:101C50003181820F931F20918204309183042817D1
:101C6000390751F5F0938304E093820467C0ED01D6
:101C700020E030E0CE17DF0740F44A815B819E010F
:101C800041155105F1F0EA01F5CFD383C2834081BC
:101C90005181840F951FC817D90759F488819981FC
:101CA000840F951F0296918380838A819B81938301
:101CB00082832115310529F4F0938504E09384048F
:101CC0003DC0E901FB83EA8349915991C40FD51FB7
:101CD000EC17FD0761F480819181840F951F0296B6
:101CE000E90199838883828193819B838A83E0E0E1
:101CF000F0E012968D919C911397009719F0FD01D9
:101D0000DC01F7CF8D919C9111979D012E5F3F4F84
:101D1000820F931F20918204309183042817390782
:101D200069F4309729F4109285041092840402C05B
:101D300013821282B0938304A0938204DF91CF9127
:061D40000895F894FFCFA6
:101D4600D30BC50BF90BED0BC70BE10BDE0B00003C
:101D560086042000436D205669727475616C204DAF
:101D6600616368696E6520002076302E312E303032
:101D76002E313130316120002841544D6567613381
:101D86003238502900436F70797269676874202869
:101D9600632920323030312D3230323020204D69E7
:101DA6006368656C206465204368616D706C616969
:101DB6006E004C6F61646572206572726F723A20B4
:101DC600004F70636F64653A200020697320726566
:101DD60073657276656420666F72206675747572B7
:101DE6006520757365642E00205D0044697669730D
:101DF600696F6E206279207A65726F0A00636F6E72
:101E0600736F6C6500747275650066616C7365004E
:00000001FF
