:100000000C945B000C9478000C9478000C947800AD
:100010000C9478000C9478000C9478000C94780080
:100020000C9478000C9478000C9478000C94780070
:100030000C9478000C9478000C9478000C94780060
:100040000C9478000C9478000C9478000C94780050
:100050000C9478000C9478000C9478000C94780040
:100060000C9478000C9478004D0254025C026202F9
:1000700039023902390239023902390239026A0277
:10008000710278027F0286028D0294029B02A20214
:10009000A902B002B702BE02C502CC02D302DA0244
:1000A000E102E802EF029904A204AC04B504D3040F
:1000B000BE04C804D10411241FBECFEFD8E0DEBFB8
:1000C000CDBF11E0A0E0B1E0EAEEFCE102C0059096
:1000D0000D92A03DB107D9F726E0A0EDB1E001C037
:1000E0001D92A63AB207E1F70E94970C0C94730E8A
:1000F0000C9400001092000410920104109202046B
:1001000010920304E4E0F4E083E0808380E48183E0
:10011000828313821092F8031092F9031092FA036B
:100120001092FB031092FC031092FD031092FE0349
:100130001092FF0308950E94190B80E00C94190B94
:100140004F925F926F927F928F929F92AF92BF92E7
:10015000CF92DF92EF92FF920F931F93CF93DF9393
:10016000CDB7DEB77C01CDB6DEB68091D0019091DF
:10017000D101A091D201B091D301892B8A2B8B2B75
:1001800071F40E947A0081E090E0A0E0B0E08093FA
:10019000D0019093D101A093D201B093D30183E019
:1001A000882E91E4992E109200041092010410926E
:1001B0000204109203040E94550B90E0A0E0B0E00E
:1001C0000097A105B105B9F38093FC039093FD035B
:1001D000A093FE03B093FF03ADB6BEB62DB73EB7F6
:1001E000281B390B0FB6F8943EBF0FBE2DBF0DB7BD
:1001F0001EB70F5F1F4F40900004509001046090A5
:10020000020470900304F801E40DF51D8083D3010E
:10021000C2010296A11DB11D8093000490930104B8
:10022000A0930204B09303040E94550B3FEF431ABE
:10023000530A630A730AF801E40DF51D80834090A8
:100240000004509001046090020470900304D301F4
:10025000C2010196A11DB11D809300049093010479
:10026000A0930204B09303040E94550BF801E40D1F
:10027000F51D80834090FC035090FD036090FE03C9
:100280007090FF038091000490910104A0910204FA
:10029000B091030484159505A605B705E8F40E94FE
:1002A000550B40910004509101046091020470913B
:1002B00003042A013B019FEF491A590A690A790A86
:1002C0004092000450920104609202047092030470
:1002D000F801E40FF51FCDCFF8018281823209F4D5
:1002E0009DC0B0F4803271F1813209F088C0F8010C
:1002F00063817481858196810E94310D2B013C01BF
:1003000067817085818592850E94310D242D28C0DA
:10031000843271F0F8F0853209F071C04091F80331
:100320005091F9036091FA037091FB0380E04FC094
:100330004091F8035091F9036091FA037091FB0327
:1003400023E023C0F801818160E070E0803221F079
:1003500083E303C064E074E08CEC0E949B0058C00F
:10036000E22EF12C00E010E0E616F7060807190768
:1003700038F4E22FF0E0EC52FE4F10822F5FF0CF06
:1003800092012C523E4F79011FC0822F90E0A0E0D5
:10039000B0E084159505A605B70570F4F701E40FE4
:1003A000F51FD801A20FB11D9C9190832F5F4F5F65
:1003B0005F4F6F4F7F4FE9CF4093F8035093F9039E
:1003C0006093FA037093FB0360E070E0C5CF082FE1
:1003D00010E020E030E0041715072607370730F457
:1003E000F701E80FF11D10828F5FF1CF0E947A00B4
:1003F0008CEC0E94190B80E00E94190B09C08CEC58
:100400000E94190B809204049092050490920604B5
:100410000FB6F894BEBE0FBEADBEC5CE60E070E0B4
:100420008CEC0E949B0080E40FB6F894DEBE0FBEF9
:10043000CDBEDF91CF911F910F91FF90EF90DF9094
:10044000CF90BF90AF909F908F907F906F905F9074
:100450004F90089580E20E94FF04909309048093D6
:1004600008040C948205EF92FF921F93CF93DF93C1
:10047000EC011881112309F4ACC28FEF810F8F3288
:1004800008F0B4C0812F90E0FC013197EF31F10505
:1004900080F7EC5CFF4F0C942B0D80910804909139
:1004A00009040E94300506C0809108049091090457
:1004B0000E94D6052196DDCF809108049091090411
:1004C0000E94BE0980910804909109040E943005A1
:1004D000EB01CFCF80910804909109040E94F105AF
:1004E000E9CF80910804909109040E940806E2CFA8
:1004F00080910804909109040E942D06DBCF809121
:100500000804909109040E945206D4CF80910804F7
:10051000909109040E947706CDCF809108049091B4
:1005200009040E949106C6CF8091080490910904A5
:100530000E94A706BFCF80910804909109040E94F1
:10054000BD06B8CF80910804909109040E94E2068C
:10055000B1CF80910804909109040E940D07AACFA1
:1005600080910804909109040E942F07A3CF8091E5
:100570000804909109040E9460079CCF80910804B0
:10058000909109040E94860795CF8091080490916C
:1005900009040E94B0078ECF80910804909109044D
:1005A0000E94DA0787CF80910804909109040E9485
:1005B0000A0880CF80910804909109040E943A08AB
:1005C00079CF80910804909109040E946A0872CF43
:1005D00080910804909109040E949A086BCF809141
:1005E0000804909109040E94CA0864CF80ED810F2D
:1005F000803240F4803108F46FC160EC610F862FC7
:10060000806F6AC160EB610F6032C0F4603110F43A
:10061000162F04C060EA610F162F106F8091080436
:10062000909109040E943005672B682B692B09F013
:1006300011E0C10FD11D17FDDA951BCF60E9610FE5
:10064000603238F480910804909109040E94FA08FD
:1006500031CF80E7810F8830A8F4612F6770462F73
:1006600050E0643020F0445051094C6F5F6F052E0C
:10067000000C660B770B80910804909109040E948E
:100680001F0518CF88E6810F883048F4612F677006
:1006900080910804909109040E943F0A0BCF80E6E4
:1006A000810F883048F4612F677080910804909121
:1006B00009040E94870AFECE88E5810F883048F43D
:1006C000612F677080910804909109040E94C60A06
:1006D000F1CE193D09F4A9C008F044C0143B09F457
:1006E00082C0E0F4CE0102967C01113B09F463C0A4
:1006F00020F4103B09F46FC058C1123B09F463C0E9
:10070000133B09F052C141E050E060E070E080919D
:100710000804909109040E941F055DC0153D09F46D
:100720007CC0C8F4CE0102967C011F3B09F46CC06A
:10073000143D09F03AC18981C80FD11D87FDDA95B2
:10074000AE01DD0F660B770B8091080490910904D0
:100750000E941F0560C0173D09F46EC0183D09F4E2
:1007600082C023C11E3D09F48DC060F41B3D09F415
:1007700089C008F46CC01C3D09F45EC01D3D09F43D
:1007800072C013C1133E09F49AC070F4103E09F40C
:10079000A0C0113E09F009C189819A819827892753
:1007A0009827C80FD91F65CE173E09F49AC01F3F7E
:1007B00009F4ACC0FAC069818091080490910904E1
:1007C0000E94870A28C069818091080490910904D9
:1007D0000E94C60A20C06981809108049091090492
:1007E0000E943F0A18C04FEF5FEFBA0180910804E2
:1007F000909109040E941F056981809108049091DD
:1008000009040E943F0ACFC0698180910804909139
:1008100009040E946B09E7012CCE49815A815427B3
:10082000452754274C0F5D1F19C04981042E000C29
:10083000550B660B770B04C0498150E060E070E017
:1008400080910804909109040E941F05ACC01A3DD4
:1008500051F449815A81542745275427052E000C0D
:10086000660B770B07C049815A81542745275427C7
:1008700060E070E080910804909109040E941F05D7
:100880002396F7CD49815A8154274527542760E0A4
:1008900070E0BA01552744278B819C8198278927CE
:1008A0009827A0E0B0E0482B592B6A2B7B2B809136
:1008B0000804909109040E941F052596DACD8091C5
:1008C0000804909109040E943005672B682B692B5E
:1008D00011F4898101C082E0C80FD11D87FDDA952E
:1008E000C8CDE980FA80FE24EF24FE24AE014D5FDE
:1008F0005F4F052E000C660B770B809108049091DA
:1009000009040E941F05CE0DDF1DB3CD898190E83B
:10091000980F983008F047C0E82FEF708E2F90E0C6
:100920008830910508F03FC0FC01ED5AFF4F0C9450
:100930002B0D80910804909109040E9430050E94BB
:10094000110B31C080910804909109040E94300578
:10095000862F0E94190B27C08091080490910904EA
:100960000E9430050E94210B1EC0809108049091C6
:1009700009040E9430050E94290B15C080910804CB
:10098000909109040E943005CB010E94310B0BC0ED
:1009900080910804909109040E9430050E94390B4F
:1009A00002C00E94410B229664CD81E891E00E9432
:1009B000310B612F70E080E090E00E94390B8AE8F3
:1009C00091E00E94310B0E94410B80E090E00E9478
:1009D000730EDF91CF911F91FF90EF900895242F18
:1009E00030E0260F311D2830310524F0440F4E5FD2
:1009F000481B02C0481B4E5F842F860F0895882332
:100A000039F09FEF90938E0490938D0480938F0420
:100A10008DE094E0089508958F579F4FFC01608109
:100A2000062E000C770B6F5F7F4F072E000C880B94
:100A3000990B08958E579F4FFC0180810895FC010A
:100A4000EF57FF4F20812F5F2083FC0134E023020A
:100A5000E00DF11D11244083518362837383089557
:100A6000FC01EF57FF4F20813FEF320F3083FC0135
:100A700034E02302E00DF11D112460817181828137
:100A800093810895FC01EF57FF4F61E070E080E033
:100A900090E020812F3F19F060E070E0CB010895D5
:100AA0000895FC01628161506283862F660F990B65
:100AB000AA0BBB0B80959095A095B095BC01CD017C
:100AC000662797FD63957727882799270895DC0186
:100AD000ED91FC91119712968C91B4E08B02E00D90
:100AE000F11D112460817181828193810895DC015F
:100AF000ED91FC911197EF57FF4F90819F5F1296F8
:100B00009C93089590930B0480930A048AE094E0E8
:100B10000E9477058AE094E0089590930B048093F7
:100B20000A048AE094E00E9477058AE094E0089540
:100B3000CF92DF92EF92FF92CF93DF93EC010E946E
:100B400077058BE50E94190B8A8181508A8387FD86
:100B500014C0E881F98194E08902E00DF11D1124AF
:100B6000C080D180E280F38088E891E00E94310B60
:100B7000C701B6010E94390BE7CF88EA91E0DF9107
:100B8000CF91FF90EF90DF90CF900C94310BFC0150
:100B9000EF57FF4F2081FC0134E02302E00DF11DEF
:100BA000112460817181828193810895FC01EF5746
:100BB000FF4F2081DC0134E02302A00DB11D112480
:100BC0004D915D916D917C912F5F2083FC0134E00C
:100BD0002302E00DF11D112440835183628373834E
:100BE0000895FC01EF57FF4F2081FC0134E0230200
:100BF000E00DF11D112480819181A281B381809546
:100C00009095A095B09580839183A283B383089536
:100C1000FC01EF57FF4F20813FEF320F3083FC0183
:100C200044E03402E00DF11D1124DC0134E0230224
:100C3000A00DB11D112440815181628173818D917C
:100C40009D910D90BC91A02D84239523A623B723BD
:100C500080839183A283B3830895FC01EF57FF4FF4
:100C600020813FEF320F3083FC0144E03402E00D7D
:100C7000F11D1124DC0134E02302A00DB11D11246B
:100C800040815181628173818D919D910D90BC91C4
:100C9000A02D842B952BA62BB72B80839183A28329
:100CA000B3830895FC01EF57FF4F20813FEF320FD0
:100CB0003083FC0144E03402E00DF11D1124DC011D
:100CC00034E02302A00DB11D1124408151816281C5
:100CD00073818D919D910D90BC91A02D84279527B6
:100CE000A627B72780839183A283B3830895FC014D
:100CF000EF57FF4F2081FC0134E02302E00DF11D8E
:100D0000112480819181A281B381B095A0959095A5
:100D100081959F4FAF4FBF4F80839183A283B38351
:100D20000895FC01EF57FF4F2081FC0134E02302BE
:100D3000E00DF11D112480819181A281B381019682
:100D4000A11DB11D80839183A283B3830895FC010B
:100D5000EF57FF4F2081FC0134E02302E00DF11D2D
:100D6000112480819181A281B3810197A109B109E8
:100D700080839183A283B3830895FC01EF57FF4FD3
:100D800020813FEF320F3083FC0144E03402E00D5C
:100D9000F11D1124DC0134E02302A00DB11D11244A
:100DA00040815181628173818D919D910D90BC91A3
:100DB000A02D840F951FA61FB71F80839183A28348
:100DC000B38308950F931F93FC01EF57FF4F2081CA
:100DD0003FEF320F3083FC0104E03002E00DF11DE3
:100DE0001124DC0114E02102A00DB11D1124408169
:100DF0005181628173818D919D910D90BC91A02D47
:100E00008A019B01081B190B2A0B3B0B00831183E2
:100E1000228333831F910F910895FC01EF57FF4FF9
:100E200020813FEF320F3083FC0144E03402E00DBB
:100E3000F11D1124DC0134E02302A00DB11D1124A9
:100E400020813181428153816D917D918D919C9161
:100E50000E94DA0C60837183828393830895CF9319
:100E6000DF93FC01EF57FF4F20816FEF620F60832C
:100E7000FC0134E02302E00DF11D112420813181B9
:100E800042815381211531054105510531F48BEA29
:100E900091E0DF91CF910C94310BEC0174E067028B
:100EA000C00DD11D1124688179818A819B810E94A6
:100EB0000C0D288339834A835B83DF91CF9108959A
:100EC000CF93DF93FC01EF57FF4F20813FEF320FAD
:100ED0003083EC0144E03402C00DD11D1124FC012B
:100EE00034E02302E00DF11D1124688179818A81AB
:100EF0009B8120813181428153810E940C0D688346
:100F000079838A839B83DF91CF9108950F931F93F9
:100F1000FC01EF57FF4F20813FEF320F3083FC0180
:100F200004E03002E00DF11D1124DC0114E0210287
:100F3000A00DB11D112440815181628173818A010C
:100F40009B010C9004C0000F111F221F331F0A9435
:100F5000D2F700831183228333831F910F91089569
:100F60000F931F93FC01EF57FF4F20813FEF320F8C
:100F70003083FC0104E03002E00DF11D1124DC019E
:100F800014E02102A00DB11D112440815181628124
:100F900073818A019B010C9004C0359527951795A4
:100FA00007950A94D2F700831183228333831F911C
:100FB0000F9108950F931F93FC01EF57FF4F20816E
:100FC0003FEF320F3083FC0144E03402E00DF11DAD
:100FD0001124DC0134E02302A00DB11D112441E0F5
:100FE00050E060E070E00D911D912D913C91808169
:100FF0009181A281B381081719072A073B0719F0CD
:1010000040E050E0BA0140835183628373831F91B3
:101010000F9108950F931F93FC01EF57FF4F20810D
:101020003FEF320F3083FC0144E03402E00DF11D4C
:101030001124DC0134E02302A00DB11D112441E094
:1010400050E060E070E00D911D912D913C91808108
:101050009181A281B381081719072A073B0719F468
:1010600040E050E0BA0140835183628373831F9153
:101070000F9108950F931F93FC01EF57FF4F2081AD
:101080003FEF320F3083FC0144E03402E00DF11DEC
:101090001124DC0134E02302A00DB11D112441E034
:1010A00050E060E070E00D911D912D913C918081A8
:1010B0009181A281B38180179107A207B3071CF029
:1010C00040E050E0BA0140835183628373831F91F3
:1010D0000F9108950F931F93FC01EF57FF4F20814D
:1010E0003FEF320F3083FC0144E03402E00DF11D8C
:1010F0001124DC0134E02302A00DB11D112441E0D4
:1011000050E060E070E00D911D912D913C91808147
:101110009181A281B381081719072A073B071CF0A8
:1011200040E050E0BA0140835183628373831F9192
:101130000F9108950F931F93FC01EF57FF4F2081EC
:101140003FEF320F3083FC0144E03402E00DF11D2B
:101150001124DC0134E02302A00DB11D112441E073
:1011600050E060E070E00D911D912D913C918081E7
:101170009181A281B381081719072A073B071CF444
:1011800040E050E0BA0140835183628373831F9132
:101190000F9108950F931F93FC01EF57FF4F20818C
:1011A0003FEF320F3083FC0144E03402E00DF11DCB
:1011B0001124DC0134E02302A00DB11D112441E013
:1011C00050E060E070E00D911D912D913C91808187
:1011D0009181A281B38180179107A207B3071CF404
:1011E00040E050E0BA0140835183628373831F91D2
:1011F0000F910895CF92DF92EF92FF920F931F937A
:10120000CF93DF93FC01862F83708F010F571F4F01
:10121000D8019C919F01B4E09B02200D311D112447
:10122000E901C880D980EA80FB809150292F280FDE
:1012300091E0920FAF01D4E09D02400D511D1124A9
:1012400064FBAA27A0F9B0E096E0AA0FBB1F9A950D
:10125000E1F7962F96959695937038E0939FB0019D
:1012600011246A2B862B082E000C990BAA0BBB0BA2
:10127000EA0188839983AA83BB8382E0820FDF011E
:10128000D4E08D02A00DB11D1124CD92DD92ED921E
:10129000FC92139793E0920FD8019C93DF01C4E076
:1012A0009C02A00DB11D1124E058FF4F4081042E77
:1012B000000C550B660B770B4D935D936D937C93F0
:1012C00013979083DF91CF911F910F91FF90EF9033
:1012D000DF90CF900895CF92DF92EF92FF929C0122
:1012E000862F8770F901EF57FF4F9081D90144E0B5
:1012F0009402A00DB11D1124CD90DD90ED90FC90D5
:101300009150980F41E0490FD90154E04502A00DDA
:10131000B11D1124462F4877482B042E000C550B85
:10132000660B770B4D935D936D937C93139782E0DF
:10133000890FD90144E08402A00DB11D1124CD9282
:10134000DD92ED92FC9213979D5F9083D90154E05A
:101350009502A00DB11D112431974081042E000C7F
:10136000550B660B770B4D935D936D937C931397A1
:101370009083FF90EF90DF90CF9008958F929F928F
:10138000AF92BF92CF92DF92EF92FF92CF93DF9313
:101390009C01DC01A058BF4F8C91F90164E08602EA
:1013A000E00DF11D112438979081892F869586953F
:1013B00086958770492F4770F901EF57FF4F96FBCD
:1013C000552750F996FF0FC090816FEF690F60832A
:1013D000E90174E09702C00DD11D11248880998025
:1013E000AA80BB8003C0812C912C54019081E9011B
:1013F00064E09602C00DD11D112468816C936FEFDB
:10140000690FD90174E06702A00DB11D1124CD90C0
:10141000DD90ED90FC909350941B981B642F70E02E
:10142000680F711D683071050CF0941B9083552373
:1014300071F080818F5F8083D90194E08902A00DD3
:10144000B11D11248D929D92AD92BC921397808113
:101450008F5F8083F90164E08602E00DF11D1124A5
:10146000C082D182E282F382DF91CF91FF90EF9030
:10147000DF90CF90BF90AF909F908F9008950F9383
:101480001F93CF93DF938C01862FF801E058FF4F15
:10149000C0810C2E000CDD0BFE013297EE0FFF1FFA
:1014A000EE0FFF1FE00FF11F6081462F477066951A
:1014B0006695669567700E94EF04F801EF57FF4F3D
:1014C00090812FEF290F2083C81BD109CC0FDD1F7E
:1014D000CC0FDD1FC00FD11FF80184E09802E00D92
:1014E000F11D1124488159816A817B81808191811C
:1014F000A281B381840F951FA61FB71F888399838C
:10150000AA83BB83DF91CF911F910F9108950F9311
:101510001F93CF93DF938C01862FF801E058FF4F84
:10152000C0810C2E000CDD0BFE013297EE0FFF1F69
:10153000EE0FFF1FE00FF11F6081462F4770669589
:101540006695669567700E94EF04C81BD109CC0FA1
:10155000DD1FCC0FDD1FC00FD11F488159816A816B
:101560007B81F801EF57FF4F80818F5F8083F80107
:1015700094E08902E00DF11D1124408351836283C0
:101580007383DF91CF911F910F9108950F931F9354
:10159000CF93DF938C01862FF801E058FF4FC08175
:1015A0000C2E000CDD0BFE013297EE0FFF1FEE0F2D
:1015B000FF1FE00FF11F6081462F4770669566950B
:1015C000669567700E94EF04F801EF57FF4F908116
:1015D0002FEF290F2083F80124E09202E00DF11D86
:1015E00011244081518162817381C81BD109CC0FC4
:1015F000DD1FCC0FDD1FC00FD11F488359836A83C5
:101600007B83DF91CF911F910F9108958DEB91E036
:101610000E94D30B0C940C0B909391048093900434
:101620000895E0919004F09191040190F081E02DF3
:101630000994E0919004F09191040280F381E02DEF
:101640000994E0919004F09191040480F581E02DDB
:101650000994E0919004F09191040680F781E02DC7
:101660000994E0919004F09191040084F185E02DBB
:101670000994E0919004F09191040284F385E02DA7
:101680000994E0919004F09191040484F585E02D93
:1016900009941092C50087E68093C40088E1809386
:1016A000C10086E08093C20008958091C00087FF4A
:1016B000FCCF8091C60008959091C00095FFFCCFAB
:1016C0008093C6000895CF93DF93EC01899188231E
:1016D00019F00E945C0BFACFDF91CF910895EF9241
:1016E000FF920F931F93CF930E94550B882381F095
:1016F00090E00E94520D7C0181E0C1E0C80F87019B
:10170000080F111D0E94550BF80180838C2FF5CF17
:1017100080E090E0CF911F910F91FF90EF9008959E
:101720009091C00095FFFCCF8093C60008950C9463
:10173000900BCF93DF93EC018991882319F00E94DD
:10174000900BFACFDF91CF910895672B682B692B0F
:1017500019F48AEC91E002C085EC91E00C94990BAD
:101760008AE00C94900B0F9300E120E046E954E0EE
:101770000E94F90B86E994E00F910C94990B0F935A
:101780000AE020E046E954E00E94F90B86E994E083
:101790000F910C94990B46E954E00E94820C86E963
:1017A00094E00C94990B8091920490919304A091F1
:1017B0009404B0919504892B8A2B8B2BB9F4109249
:1017C000C50087E68093C40088E18093C10086E06D
:1017D0008093C20081E090E0A0E0B0E080939204AA
:1017E00090939304A0939404B093950480E091E0C7
:1017F00008953F924F925F926F927F928F929F9245
:10180000AF92BF92CF92DF92EF92FF920F931F930E
:10181000CF93DF934B015C01EA01122F0A3039F0BC
:10182000C12CD12CE12C90E1F92E00E107C0C12C94
:101830008AECD82E8AE9E82E8BE3F82E81149104E5
:10184000A104B10489F40695202F30E040E3812FF4
:10185000012E000C990B82179307ECF5FE01E80F9F
:10186000F91F40831F5FF3CF33243394310E402E92
:10187000512C612C712CC501B401A70196010E9465
:10188000EA0C8FEF830D082E000C990B132DFE012F
:10189000E80FF91F0A3039F02A30310541055105AA
:1018A00010F067E301C060E3620F6083C701B60117
:1018B0000E94DA0C861A970AA80AB90AC701B6016B
:1018C000A30192010E94EA0C69017A013394232B4F
:1018D000242B252B81F6C10FD11D17FDDA95188217
:1018E000DF91CF911F910F91FF90EF90DF90CF90FC
:1018F000BF90AF909F908F907F906F905F904F9030
:101900003F9008950F9397FF0CC02DE2FA012083BA
:1019100090958095709561957F4F8F4F9F4F21E0F7
:1019200001C020E00AE00E94F90B0F910895CF93C7
:101930000E94490B0E94060B82EA94E00E94A000DC
:10194000C82F803439F584E191E00E94310B8CEB93
:1019500091E00E94310B88E291E00E94310B88E314
:1019600091E00E94310B0E94410B85E491E00E94BE
:10197000310B0E94410B82EA94E00E942A0282EA23
:1019800094E00E9433028CEC0E94190B80E00E94CC
:10199000190BD2CF82E791E00E94310B6C2F70E0DF
:1019A00080E090E00E94390B0E94410B8FEF9FEF87
:1019B000CF910895DB018F939F930E94380DBF91C3
:1019C000AF91A29F800D911DA39F900DB29F900D8E
:1019D00011240895A1E21A2EAA1BBB1BFD010DC004
:1019E000AA1FBB1FEE1FFF1FA217B307E407F507CF
:1019F00020F0A21BB30BE40BF50B661F771F881FAB
:101A0000991F1A9469F760957095809590959B0140
:101A1000AC01BD01CF010895052E97FB1EF4009483
:101A20000E94230D57FD07D00E94EA0C07FC03D04B
:101A30004EF40C94230D50954095309521953F4FD1
:101A40004F4F5F4F089590958095709561957F4FAA
:101A50008F4F9F4F0895EE0FFF1F0590F491E02DDB
:101A60000994692796276927782787277827089573
:101A70000E94430DA59F900DB49F900DA49F800DD3
:101A8000911D11240895A29FB001B39FC001A39F8F
:101A9000700D811D1124911DB29F700D811D1124A7
:101AA000911D08950F931F93CF93DF93823091057B
:101AB00010F482E090E0E091A406F091A50620E009
:101AC00030E0A0E0B0E0309719F14081518102810F
:101AD000138148175907C8F08417950769F41097C0
:101AE00031F012960C93129713961C9327C0009313
:101AF000A4061093A50622C02115310519F042173E
:101B0000530718F49A01BD01EF01DF01F801DBCFA3
:101B100021153105F9F0281B390B2430310580F4EB
:101B20008A819B816115710521F0FB01938382837A
:101B300004C09093A5068093A406FE01329644C08B
:101B4000FE01E20FF31F81939193225031093983F3
:101B500028833AC02091A2063091A306232B41F49A
:101B600020911001309111013093A3062093A20619
:101B700020910E0130910F012115310541F42DB74F
:101B80003EB74091120150911301241B350BE09197
:101B9000A206F091A306E217F307A0F42E1B3F0B59
:101BA0002817390778F0AC014E5F5F4F24173507CF
:101BB00048F04E0F5F1F5093A3064093A2068193F7
:101BC000919302C0E0E0F0E0CF01DF91CF911F914F
:101BD0000F910895CF93DF93009709F481C0FC0122
:101BE000329713821282A091A406B091A506109795
:101BF00081F420813181820F931F2091A2063091C0
:101C0000A3062817390751F5F093A306E093A2061F
:101C100067C0ED0120E030E0CE17DF0740F44A81D5
:101C20005B819E0141155105F1F0EA01F5CFD383A7
:101C3000C28340815181840F951FC817D90759F479
:101C400088819981840F951F0296918380838A8170
:101C50009B81938382832115310529F4F093A50696
:101C6000E093A4063DC0E901FB83EA8349915991C1
:101C7000C40FD51FEC17FD0761F480819181840F9B
:101C8000951F0296E90199838883828193819B83C2
:101C90008A83E0E0F0E012968D919C911397009773
:101CA00019F0FD01DC01F7CF8D919C9111979D01F9
:101CB0002E5F3F4F820F931F2091A2063091A30603
:101CC0002817390769F4309729F41092A506109265
:101CD000A40602C013821282B093A306A093A206A8
:0A1CE000DF91CF910895F894FFCF33
:101CEA00A50B970BCB0BBF0B990BB30BB00B0000DB
:101CFA00A6062000436D205669727475616C204DEA
:101D0A00616368696E6520002076302E312E30308E
:101D1A002E313130316120002841544D65676133DD
:101D2A003238502900436F707972696768742028C5
:101D3A00632920323030312D3230323020204D6943
:101D4A006368656C206465204368616D706C6169C5
:101D5A006E004C6F61646572206572726F723A2010
:101D6A00004F70636F64653A2000206973207265C2
:101D7A0073657276656420666F7220667574757213
:101D8A006520757365642E00205D00446976697369
:101D9A00696F6E206279207A65726F0A00636F6ECE
:101DAA00736F6C6500747275650066616C736500AB
:00000001FF
