:100000000C945B000C9478000C9478000C947800AD
:100010000C9478000C9478000C9478000C94780080
:100020000C9478000C9478000C9478000C94780070
:100030000C9478000C9478000C9478000C94780060
:100040000C9478000C9478000C9478000C94780050
:100050000C9478000C9478000C9478000C94780040
:100060000C9478000C9478007A02810289028F0245
:10007000660266026602660266026602660297020F
:100080009E02A502AC02B302BA02C102C802CF02AC
:10009000D602DD02E402EB02F202F90200030703DA
:1000A0000E0315031C03C604CF04D904E2040005A3
:1000B000EB04F504FE0411241FBECFEFD8E0DEBF31
:1000C000CDBF11E0A0E0B1E0E4EEFDE102C005909B
:1000D0000D92A03DB107D9F726E0A0EDB1E001C037
:1000E0001D92A638B207E1F70E94140D0C94F00E91
:1000F0000C9400001092E0031092E1031092E203CE
:100100001092E303E4EEF3E083E0808380E48183F4
:10011000828313821092D8031092D9031092DA03CB
:100120001092DB031092D4031092D5031092D603E1
:100130001092D7031092DC031092DD031092DE03BD
:100140001092DF0308952F923F924F925F926F9229
:100150007F928F929F92AF92BF92CF92DF92EF9257
:10016000FF920F931F93CF93DF93CDB7DEB77C0140
:100170002DB63EB68091D0039091D103A091D203C9
:10018000B091D303892B8A2B8B2B71F40E947A00B8
:1001900081E090E0A0E0B0E08093D0039093D103A1
:1001A000A093D203B093D3031092E0031092E10323
:1001B0001092E2031092E3030E94820B90E0A0E011
:1001C000B0E00097A105B105B9F38093DC039093EB
:1001D000DD03A093DE03B093DF03CDB6DEB60DB72B
:1001E0001EB7081B190B0FB6F8941EBF0FBE0DBF2C
:1001F0000F5F1F4F8090E0039090E103A090E20317
:10020000B090E303F801E80DF91D8083D501C40126
:100210000296A11DB11D8093E0039093E103A0938A
:10022000E203B093E3030E94820B2FEF821A920A3B
:10023000A20AB20AF801E80DF91D80838090E0035C
:100240009090E103A090E203B090E303D501C401D4
:100250000196A11DB11D8093E0039093E103A0934B
:10026000E203B093E3030E94820BF801E80DF91D4D
:1002700080838090DC039090DD03A090DE03B0903B
:10028000DF038091E0039091E103A091E203B0913C
:10029000E30388159905AA05BB05E8F40E94820BC3
:1002A0004091E0035091E1036091E2037091E30318
:1002B0004A015B013FEF831A930AA30AB30A8092B3
:1002C000E0039092E103A092E203B092E303F8010D
:1002D000E40FF51FCDCFF8018281823209F4C8C046
:1002E00028F48032E9F0813241F1AEC0843271F0FD
:1002F00000F1853209F0A8C04091D4035091D50394
:100300006091D6037091D70380E088C04091D403F8
:100310005091D5036091D6037091D70323E047C075
:10032000F801818140E060E070E0803209F097C020
:1003300089C040E064EE73E085C0F8016381748198
:10034000858196810E94AE0D262F572F482F392F79
:1003500067817085818592850E94AE0D2B013C01DD
:10036000653272408105910508F07CC0822F882E8D
:10037000912CA12CB12C84149504A604B70430F45C
:10038000F701E80FF11D10828F5FF1CF2093D803A2
:100390005093D9034093DA033093DB032093D403C3
:1003A0005093D5034093D6033093D70348C0822F90
:1003B00090E0A0E0B0E088159905AA05BB0570F4AF
:1003C000F701E40FF51FD801A20FB11D9C91908396
:1003D0002F5F4F5F5F4F6F4F7F4FE9CF4093D40345
:1003E0005093D5036093D6037093D7038091D803BD
:1003F0009091D903A091DA03B091DB038A019B01AC
:10040000081B190B2A0B3B0B40165106620673069C
:10041000B1F4F701E40FF51F108211C0082F10E0AE
:1004200020E030E0041715072607370730F4F701FE
:10043000E80FF11D10828F5FF1CF0E947A0040E03B
:1004400060E070E08CEC0CC013E01093E40321E456
:100450002093E5032093E60340E060E070E083E34F
:100460000E94900B0FB6F894DEBE0FBECDBE9CCEA0
:1004700040E060E070E08CEC0E94900B80E40FB6EE
:10048000F8943EBE0FBE2DBEDF91CF911F910F910C
:10049000FF90EF90DF90CF90BF90AF909F908F90A4
:1004A0007F906F905F904F903F902F90089580E2E3
:1004B0000E942C059093E9038093E8030C94AF0508
:1004C000EF92FF921F93CF93DF93EC0118811123DA
:1004D00009F4ACC28FEF810F8F3208F0B4C0812FC6
:1004E00090E0FC013197EF31F10580F7EC5CFF4FB4
:1004F0000C94A80D8091E8039091E9030E945D059A
:1005000006C08091E8039091E9030E9403062196BA
:10051000DDCF8091E8039091E9030E94EB0980917F
:10052000E8039091E9030E945D05EB01CFCF809134
:10053000E8039091E9030E941E06E9CF8091E80349
:100540009091E9030E943506E2CF8091E8039091F3
:10055000E9030E945A06DBCF8091E8039091E903FA
:100560000E947F06D4CF8091E8039091E9030E9416
:10057000A406CDCF8091E8039091E9030E94BE06C6
:10058000C6CF8091E8039091E9030E94D406BFCFC3
:100590008091E8039091E9030E94EA06B8CF809128
:1005A000E8039091E9030E940F07B1CF8091E8031F
:1005B0009091E9030E943A07AACF8091E8039091B5
:1005C000E9030E945C07A3CF8091E8039091E903BF
:1005D0000E948D079CCF8091E8039091E9030E94CF
:1005E000B30795CF8091E8039091E9030E94DD075E
:1005F0008ECF8091E8039091E9030E94070887CF8E
:100600008091E8039091E9030E94370880CF8091A0
:10061000E8039091E9030E94670879CF8091E8038D
:100620009091E9030E94970872CF8091E80390911E
:10063000E9030E94C7086BCF8091E8039091E9031A
:100640000E94F70864CF80ED810F803240F4803142
:1006500008F46FC160EC610F862F806F6AC160EB98
:10066000610F6032C0F4603110F4162F04C060EAEC
:10067000610F162F106F8091E8039091E9030E949B
:100680005D05672B682B692B09F011E0C10FD11DA7
:1006900017FDDA951BCF60E9610F603238F4809165
:1006A000E8039091E9030E94270931CF80E7810F89
:1006B0008830A8F4612F6770462F50E0643020F036
:1006C000445051094C6F5F6F052E000C660B770B81
:1006D0008091E8039091E9030E944C0518CF88E6C9
:1006E000810F883048F4612F67708091E803909102
:1006F000E9030E946C0A0BCF80E6810F883048F432
:10070000612F67708091E8039091E9030E94B40A19
:10071000FECE88E5810F883048F4612F67708091A4
:10072000E8039091E9030E94F30AF1CE193D09F420
:10073000A9C008F044C0143B09F482C0E0F4CE0123
:1007400002967C01113B09F463C020F4103B09F4CC
:100750006FC058C1123B09F463C0133B09F052C18A
:1007600041E050E060E070E08091E8039091E9039F
:100770000E944C055DC0153D09F47CC0C8F4CE0153
:1007800002967C011F3B09F46CC0143D09F03AC18C
:100790008981C80FD11D87FDDA95AE01DD0F660B8B
:1007A000770B8091E8039091E9030E944C0560C0AB
:1007B000173D09F46EC0183D09F482C023C11E3DE7
:1007C00009F48DC060F41B3D09F489C008F46CC0C5
:1007D0001C3D09F45EC01D3D09F472C013C1133EF7
:1007E00009F49AC070F4103E09F4A0C0113E09F05B
:1007F00009C189819A81982789279827C80FD91F0D
:1008000065CE173E09F49AC01F3F09F4ACC0FAC088
:1008100069818091E8039091E9030E94B40A28C09D
:1008200069818091E8039091E9030E94F30A20C056
:1008300069818091E8039091E9030E946C0A18C0D5
:100840004FEF5FEFBA018091E8039091E9030E94B6
:100850004C0569818091E8039091E9030E946C0A3C
:10086000CFC069818091E8039091E9030E949809C3
:10087000E7012CCE49815A815427452754274C0F34
:100880005D1F19C04981042E000C550B660B770BB8
:1008900004C0498150E060E070E08091E8039091ED
:1008A000E9030E944C05ACC01A3D51F449815A81BC
:1008B000542745275427052E000C660B770B07C0DD
:1008C00049815A8154274527542760E070E0809180
:1008D000E8039091E9030E944C052396F7CD4981E6
:1008E0005A8154274527542760E070E0BA01552704
:1008F00044278B819C81982789279827A0E0B0E026
:10090000482B592B6A2B7B2B8091E8039091E903AC
:100910000E944C052596DACD8091E8039091E90379
:100920000E945D05672B682B692B11F4898101C03A
:1009300082E0C80FD11D87FDDA95C8CDE980FA8025
:10094000FE24EF24FE24AE014D5F5F4F052E000C08
:10095000660B770B8091E8039091E9030E944C05A8
:10096000CE0DDF1DB3CD898190E8980F983008F047
:1009700047C0E82FEF708E2F90E08830910508F087
:100980003FC0FC01ED5AFF4F0C94A80D8091E80385
:100990009091E9030E945D050E943E0B31C0809159
:1009A000E8039091E9030E945D05862F0E94460BA3
:1009B00027C08091E8039091E9030E945D050E94A1
:1009C0004E0B1EC08091E8039091E9030E945D05E3
:1009D0000E94560B15C08091E8039091E9030E9494
:1009E0005D05CB010E945E0B0BC08091E8039091E6
:1009F000E9030E945D050E94660B02C00E946E0B17
:100A0000229664CD81E891E00E945E0B612F70E038
:100A100080E090E00E94660B8AE891E00E945E0B05
:100A20000E946E0B80E090E00E94F00EDF91CF916B
:100A30001F91FF90EF900895242F30E0260F311D75
:100A40002830310524F0440F4E5F481B02C0481B7C
:100A50004E5F842F860F0895882339F09FEF90937F
:100A60006E0490936D0480936F048DEE93E008956F
:100A700008958F579F4FFC016081062E000C770B65
:100A80006F5F7F4F072E000C880B990B08958E57D0
:100A90009F4FFC0180810895FC01EF57FF4F20819B
:100AA0002F5F2083FC0134E02302E00DF11D1124AF
:100AB00040835183628373830895FC01EF57FF4F96
:100AC00020813FEF320F3083FC0134E02302E00D40
:100AD000F11D112460817181828193810895FC014F
:100AE000EF57FF4F61E070E080E090E020812F3F02
:100AF00019F060E070E0CB0108950895FC01628177
:100B000061506283862F660F990BAA0BBB0B8095F1
:100B10009095A095B095BC01CD01662797FD639592
:100B20007727882799270895DC01ED91FC9111978B
:100B300012968C91B4E08B02E00DF11D11246081BE
:100B40007181828193810895DC01ED91FC9111976F
:100B5000EF57FF4F90819F5F12969C93089590935B
:100B6000EB038093EA038AEE93E00E94A4058AEEE9
:100B700093E008959093EB038093EA038AEE93E069
:100B80000E94A4058AEE93E00895CF92DF92EF923F
:100B9000FF92CF93DF93EC010E94A4058BE50E94A6
:100BA000460B8A8181508A8387FD14C0E881F981D0
:100BB00094E08902E00DF11D1124C080D180E28013
:100BC000F38088E891E00E945E0BC701B6010E94A5
:100BD000660BE7CF88EA91E0DF91CF91FF90EF902D
:100BE000DF90CF900C945E0BFC01EF57FF4F2081FC
:100BF000FC0134E02302E00DF11D112460817181BC
:100C0000828193810895FC01EF57FF4F2081DC0121
:100C100034E02302A00DB11D11244D915D916D9121
:100C20007C912F5F2083FC0134E02302E00DF11D55
:100C3000112440835183628373830895FC01EF572D
:100C4000FF4F2081FC0134E02302E00DF11D11244F
:100C500080819181A281B38180959095A095B09576
:100C600080839183A283B3830895FC01EF57FF4FE4
:100C700020813FEF320F3083FC0144E03402E00D6D
:100C8000F11D1124DC0134E02302A00DB11D11245B
:100C900040815181628173818D919D910D90BC91B4
:100CA000A02D84239523A623B72380839183A28339
:100CB000B3830895FC01EF57FF4F20813FEF320FC0
:100CC0003083FC0144E03402E00DF11D1124DC010D
:100CD00034E02302A00DB11D1124408151816281B5
:100CE00073818D919D910D90BC91A02D842B952B9E
:100CF000A62BB72B80839183A283B3830895FC0135
:100D0000EF57FF4F20813FEF320F3083FC0144E06B
:100D10003402E00DF11D1124DC0134E02302A00DAA
:100D2000B11D112440815181628173818D919D910A
:100D30000D90BC91A02D84279527A627B7278083E7
:100D40009183A283B3830895FC01EF57FF4F208165
:100D5000FC0134E02302E00DF11D1124808191811A
:100D6000A281B381B095A095909581959F4FAF4F8B
:100D7000BF4F80839183A283B3830895FC01EF5713
:100D8000FF4F2081FC0134E02302E00DF11D11240E
:100D900080819181A281B3810196A11DB11D8083C3
:100DA0009183A283B3830895FC01EF57FF4F208105
:100DB000FC0134E02302E00DF11D112480819181BA
:100DC000A281B3810197A109B10980839183A28394
:100DD000B3830895FC01EF57FF4F20813FEF320F9F
:100DE0003083FC0144E03402E00DF11D1124DC01EC
:100DF00034E02302A00DB11D112440815181628194
:100E000073818D919D910D90BC91A02D840F951FA4
:100E1000A61FB71F80839183A283B38308950F9386
:100E20001F93FC01EF57FF4F20813FEF320F3083BC
:100E3000FC0104E03002E00DF11D1124DC0114E09E
:100E40002102A00DB11D1124408151816281738165
:100E50008D919D910D90BC91A02D8A019B01081B45
:100E6000190B2A0B3B0B00831183228333831F91C1
:100E70000F910895FC01EF57FF4F20813FEF320F94
:100E80003083FC0144E03402E00DF11D1124DC014B
:100E900034E02302A00DB11D112420813181428153
:100EA00053816D917D918D919C910E94570D60832E
:100EB0007183828393830895CF93DF93FC01EF576F
:100EC000FF4F20816FEF620F6083FC0134E023024B
:100ED000E00DF11D112420813181428153812115C2
:100EE00031054105510531F48BEA91E0DF91CF9155
:100EF0000C945E0BEC0174E06702C00DD11D11244F
:100F0000688179818A819B810E94890D2883398338
:100F10004A835B83DF91CF910895CF93DF93FC01E8
:100F2000EF57FF4F20813FEF320F3083EC0144E059
:100F30003402C00DD11D1124FC0134E02302E00D68
:100F4000F11D1124688179818A819B812081318101
:100F5000428153810E94890D688379838A839B83B0
:100F6000DF91CF9108950F931F93FC01EF57FF4F2F
:100F700020813FEF320F3083FC0104E03002E00DAE
:100F8000F11D1124DC0114E02102A00DB11D11247A
:100F900040815181628173818A019B010C9004C060
:100FA000000F111F221F331F0A94D2F700831183F1
:100FB000228333831F910F9108950F931F93FC0198
:100FC000EF57FF4F20813FEF320F3083FC0104E0E9
:100FD0003002E00DF11D1124DC0114E02102A00D0E
:100FE000B11D112440815181628173818A019B016D
:100FF0000C9004C035952795179507950A94D2F75C
:1010000000831183228333831F910F9108950F93DF
:101010001F93FC01EF57FF4F20813FEF320F3083CA
:10102000FC0144E03402E00DF11D1124DC0134E048
:101030002302A00DB11D112441E050E060E070E0FA
:101040000D911D912D913C9180819181A281B3815F
:10105000081719072A073B0719F040E050E0BA01CA
:1010600040835183628373831F910F9108950F937F
:101070001F93FC01EF57FF4F20813FEF320F30836A
:10108000FC0144E03402E00DF11D1124DC0134E0E8
:101090002302A00DB11D112441E050E060E070E09A
:1010A0000D911D912D913C9180819181A281B381FF
:1010B000081719072A073B0719F440E050E0BA0166
:1010C00040835183628373831F910F9108950F931F
:1010D0001F93FC01EF57FF4F20813FEF320F30830A
:1010E000FC0144E03402E00DF11D1124DC0134E088
:1010F0002302A00DB11D112441E050E060E070E03A
:101100000D911D912D913C9180819181A281B3819E
:1011100080179107A207B3071CF040E050E0BA0126
:1011200040835183628373831F910F9108950F93BE
:101130001F93FC01EF57FF4F20813FEF320F3083A9
:10114000FC0144E03402E00DF11D1124DC0134E027
:101150002302A00DB11D112441E050E060E070E0D9
:101160000D911D912D913C9180819181A281B3813E
:10117000081719072A073B071CF040E050E0BA01A6
:1011800040835183628373831F910F9108950F935E
:101190001F93FC01EF57FF4F20813FEF320F308349
:1011A000FC0144E03402E00DF11D1124DC0134E0C7
:1011B0002302A00DB11D112441E050E060E070E079
:1011C0000D911D912D913C9180819181A281B381DE
:1011D000081719072A073B071CF440E050E0BA0142
:1011E00040835183628373831F910F9108950F93FE
:1011F0001F93FC01EF57FF4F20813FEF320F3083E9
:10120000FC0144E03402E00DF11D1124DC0134E066
:101210002302A00DB11D112441E050E060E070E018
:101220000D911D912D913C9180819181A281B3817D
:1012300080179107A207B3071CF440E050E0BA0101
:1012400040835183628373831F910F910895CF92DE
:10125000DF92EF92FF920F931F93CF93DF93FC01E6
:10126000862F83708F010F571F4FD8019C919F01CC
:10127000B4E09B02200D311D1124E901C880D98002
:10128000EA80FB809150292F280F91E0920FAF0147
:10129000D4E09D02400D511D112464FBAA27A0F942
:1012A000B0E096E0AA0FBB1F9A95E1F7962F9695AE
:1012B0009695937038E0939FB00111246A2B862B8A
:1012C000082E000C990BAA0BBB0BEA0188839983AB
:1012D000AA83BB8382E0820FDF01D4E08D02A00DE0
:1012E000B11D1124CD92DD92ED92FC92139793E003
:1012F000920FD8019C93DF01C4E09C02A00DB11DA8
:101300001124E058FF4F4081042E000C550B660B52
:10131000770B4D935D936D937C9313979083DF913F
:10132000CF911F910F91FF90EF90DF90CF90089594
:10133000CF92DF92EF92FF929C01862F8770F90186
:10134000EF57FF4F9081D90144E09402A00DB11DE9
:101350001124CD90DD90ED90FC909150980F41E0DC
:10136000490FD90154E04502A00DB11D1124462FAB
:101370004877482B042E000C550B660B770B4D93CA
:101380005D936D937C93139782E0890FD90144E0BC
:101390008402A00DB11D1124CD92DD92ED92FC923C
:1013A00013979D5F9083D90154E09502A00DB11D64
:1013B000112431974081042E000C550B660B770BDE
:1013C0004D935D936D937C9313979083FF90EF9073
:1013D000DF90CF9008958F929F92AF92BF92CF925D
:1013E000DF92EF92FF92CF93DF939C01DC01A05834
:1013F000BF4F8C91F90164E08602E00DF11D1124CC
:1014000038979081892F8695869586958770492F84
:101410004770F901EF57FF4F96FB552750F996FF9C
:101420000FC090816FEF690F6083E90174E097024C
:10143000C00DD11D112488809980AA80BB8003C073
:10144000812C912C54019081E90164E09602C00D39
:10145000D11D112468816C936FEF690FD90174E07D
:101460006702A00DB11D1124CD90DD90ED90FC9090
:101470009350941B981B642F70E0680F711D6830A7
:1014800071050CF0941B9083552371F080818F5F60
:101490008083D90194E08902A00DB11D11248D92A1
:1014A0009D92AD92BC92139780818F5F8083F901EA
:1014B00064E08602E00DF11D1124C082D182E28237
:1014C000F382DF91CF91FF90EF90DF90CF90BF90AC
:1014D000AF909F908F9008950F931F93CF93DF93BA
:1014E0008C01862FF801E058FF4FC0810C2E000CB4
:1014F000DD0BFE013297EE0FFF1FEE0FFF1FE00F17
:10150000F11F6081462F47706695669566956770F6
:101510000E941C05F801EF57FF4F90812FEF290F14
:101520002083C81BD109CC0FDD1FCC0FDD1FC00FDE
:10153000D11FF80184E09802E00DF11D11244881CB
:1015400059816A817B8180819181A281B381840FDD
:10155000951FA61FB71F88839983AA83BB83DF913A
:10156000CF911F910F9108950F931F93CF93DF9306
:101570008C01862FF801E058FF4FC0810C2E000C23
:10158000DD0BFE013297EE0FFF1FEE0FFF1FE00F86
:10159000F11F6081462F4770669566956695677066
:1015A0000E941C05C81BD109CC0FDD1FCC0FDD1F0D
:1015B000C00FD11F488159816A817B81F801EF57A3
:1015C000FF4F80818F5F8083F80194E08902E00DF6
:1015D000F11D11244083518362837383DF91CF9186
:1015E0001F910F9108950F931F93CF93DF938C0159
:1015F000862FF801E058FF4FC0810C2E000CDD0B48
:10160000FE013297EE0FFF1FEE0FFF1FE00FF11FDD
:101610006081462F477066956695669567700E9453
:101620001C05F801EF57FF4F90812FEF290F208302
:10163000F80124E09202E00DF11D11244081518156
:1016400062817381C81BD109CC0FDD1FCC0FDD1F58
:10165000C00FD11F488359836A837B83DF91CF9169
:101660001F910F9108958DEB91E00E94130C0C9443
:10167000390B90937104809370040895E091700485
:10168000F09171040190F081E02D0994E0917004D3
:10169000F09171040280F381E02D0994E0917004CF
:1016A000F09171040480F581E02D0994E0917004BB
:1016B000F09171040680F781E02D0994E0917004A7
:1016C000F09171040084F185E02D0994E09170049B
:1016D000F09171040284F385E02D0994E091700487
:1016E000F09171040484F585E02D09941092C500F1
:1016F00087E68093C40088E18093C10086E08093F0
:10170000C20008958091C00087FFFCCF8091C60081
:1017100008959091C00095FFFCCF8093C600089576
:10172000FF920F931F93CF93DF93F62E072F142F63
:101730000E94890BCF2DD02FCE01810F911D8C01DE
:10174000C017D10721F089910E94890BF9CF80E061
:10175000DF91CF911F910F91FF900C94890BEF9225
:10176000FF920F931F93CF930E94820B882381F0E7
:1017700090E00E94CF0D7C0181E0C1E0C80F87019D
:10178000080F111D0E94820BF80180838C2FF5CF6A
:1017900080E090E0CF911F910F91FF90EF9008951E
:1017A0009091C00095FFFCCF8093C60008950C94E3
:1017B000D00BCF93DF93EC018991882319F00E941D
:1017C000D00BFACFDF91CF910895672B682B692B4F
:1017D00019F48AEC91E002C085EC91E00C94D90BED
:1017E0008AE00C94D00B0F9300E120E046E754E030
:1017F0000E94390C86E794E00F910C94D90B0F935B
:101800000AE020E046E754E00E94390C86E794E0C5
:101810000F910C94D90B46E754E00E94FF0C86E729
:1018200094E00C94D90B8091720490917304A09170
:101830007404B0917504892B8A2B8B2BB9F4109208
:10184000C50087E68093C40088E18093C10086E0EC
:101850008093C20081E090E0A0E0B0E08093720449
:1018600090937304A0937404B093750480E091E0A6
:1018700008954F925F926F927F928F929F92AF9254
:10188000BF92EF92FF920F93CF93DF93CDB7DEB766
:1018900029970FB6F894DEBF0FBECDBF2B013C01D8
:1018A0007A0129870A3009F493C0672B682B692BCA
:1018B00009F480C000E1812C912CA12C90E1B92E7B
:1018C00019821A821B821C82802F90E0A0E0B0E077
:1018D0008D839E83AF83B887C301B201A5019401B4
:1018E0000E94670D0A3009F589819A81AB81BC811C
:1018F000892B8A2B8B2B29F42115310541055105A4
:1019000039F1F7019985E90FF11D97FDFA9580E30B
:10191000820F80839F5F998781E090E0A0E0B0E034
:1019200089839A83AB83BC8313C099859F5FF7013A
:10193000A985EA0FF11DA7FDFA952A303105410569
:10194000510510F087E301C080E3820F80839987FF
:10195000C501B4010E94570D461A570A680A790A50
:10196000C501B4012D813E814F8158850E94670DCC
:1019700049015A01232B242B252B09F0ADCFF70168
:10198000B985EB0FF11DB7FDFA95108229960FB6B8
:10199000F894DEBF0FBECDBFDF91CF910F91FF90C6
:1019A000EF90BF90AF909F908F907F906F905F90DF
:1019B0004F90089580E3A985A8300CF7F701998529
:1019C000E90FF11D97FDFA9580839F5F9987F3CF0B
:1019D000672B682B692B59F4F701B985EB0FF11DC3
:1019E000B7FDFA9580E38083BF5FB987C8CF812CAC
:1019F0008AEC982E8AE9A82E8BE3B82E61CF0F933C
:101A000097FF0CC02DE2FA01208390958095709588
:101A100061957F4F8F4F9F4F21E001C020E00AE08A
:101A20000E94390C0F910895CF930E94760B0E946B
:101A3000330B80ED91E00E94A300C82F803439F56C
:101A400084E191E00E945E0B8CEB91E00E945E0BC2
:101A500088E291E00E945E0B88E391E00E945E0BB9
:101A60000E946E0B85E491E00E945E0B0E946E0B5B
:101A700080ED91E00E94570280ED91E00E946002AB
:101A80008CEC0E94460B80E00E94460BD2CF82E78E
:101A900091E00E945E0B6C2F70E080E090E00E946D
:101AA000660B0E946E0B8FEF9FEFCF910895DB01C5
:101AB0008F939F930E94B50DBF91AF91A29F800D10
:101AC000911DA39F900DB29F900D11240895A1E246
:101AD0001A2EAA1BBB1BFD010DC0AA1FBB1FEE1FA8
:101AE000FF1FA217B307E407F50720F0A21BB30BF3
:101AF000E40BF50B661F771F881F991F1A9469F76F
:101B000060957095809590959B01AC01BD01CF01CA
:101B10000895052E97FB1EF400940E94A00D57FD1A
:101B200007D00E94670D07FC03D04EF40C94A00D63
:101B300050954095309521953F4F4F4F5F4F0895F9
:101B400090958095709561957F4F8F4F9F4F089529
:101B5000EE0FFF1F0590F491E02D09946927962759
:101B6000692778278727782708950E94C00DA59FA9
:101B7000900DB49F900DA49F800D911D1124089588
:101B8000A29FB001B39FC001A39F700D811D1124BE
:101B9000911DB29F700D811D1124911D08950F9309
:101BA0001F93CF93DF938230910510F482E090E091
:101BB000E0918406F091850620E030E0A0E0B0E0FE
:101BC000309719F1408151810281138148175907DB
:101BD000C8F08417950769F4109731F012960C93AA
:101BE000129713961C9327C00093840610938506C2
:101BF00022C02115310519F04217530718F49A0134
:101C0000BD01EF01DF01F801DBCF21153105F9F04E
:101C1000281B390B2430310580F48A819B816115A2
:101C2000710521F0FB019383828304C090938506A4
:101C300080938406FE01329644C0FE01E20FF31F3A
:101C40008193919322503109398328833AC020919E
:101C5000820630918306232B41F4209110013091AC
:101C60001101309383062093820620910E0130915A
:101C70000F012115310541F42DB73EB740911201F6
:101C800050911301241B350BE0918206F0918306DD
:101C9000E217F307A0F42E1B3F0B2817390778F043
:101CA000AC014E5F5F4F2417350748F04E0F5F1FA2
:101CB00050938306409382068193919302C0E0E0A3
:101CC000F0E0CF01DF91CF911F910F910895CF9355
:101CD000DF93009709F481C0FC01329713821282CE
:101CE000A0918406B0918506109781F420813181FE
:101CF000820F931F2091820630918306281739079F
:101D000051F5F0938306E093820667C0ED0120E071
:101D100030E0CE17DF0740F44A815B819E01411518
:101D20005105F1F0EA01F5CFD383C283408151819F
:101D3000840F951FC817D90759F488819981840F9A
:101D4000951F0296918380838A819B8193838283EE
:101D50002115310529F4F0938506E09384063DC0F2
:101D6000E901FB83EA8349915991C40FD51FEC1710
:101D7000FD0761F480819181840F951F0296E9012E
:101D800099838883828193819B838A83E0E0F0E05A
:101D900012968D919C911397009719F0FD01DC012B
:101DA000F7CF8D919C9111979D012E5F3F4F820F30
:101DB000931F20918206309183062817390769F412
:101DC000309729F4109285061092840602C013827F
:101DD0001282B0938306A0938206DF91CF9108957B
:041DE000F894FFCFA5
:101DE400E50BD70B0B0CFF0BD90BF30BF00B00001F
:101DF40086062000436D205669727475616C204D0F
:101E0400616368696E6520002076302E312E303093
:101E14002E313130316120002841544D65676133E2
:101E24003238502900436F707972696768742028CA
:101E3400632920323030312D3230323020204D6948
:101E44006368656C206465204368616D706C6169CA
:101E54006E004C6F61646572206572726F723A2015
:101E6400004F70636F64653A2000206973207265C7
:101E740073657276656420666F7220667574757218
:101E84006520757365642E00205D0044697669736E
:101E9400696F6E206279207A65726F0A00636F6ED3
:101EA400736F6C6500747275650066616C736500B0
:00000001FF
