:100000000C9434000C9451000C9451000C94510049
:100010000C9451000C9451000C9451000C9451001C
:100020000C9451000C9451000C9451000C9451000C
:100030000C9451000C9451000C9451000C945100FC
:100040000C9451000C9451000C9451000C945100EC
:100050000C9451000C9451000C9451000C945100DC
:100060000C9451000C94510011241FBECFEFD8E026
:10007000DEBFCDBF11E0A0E0B1E0EAEDF4E002C0E8
:1000800005900D92AA38B107D9F721E0AAE8B1E0AE
:1000900001C01D92AC39B207E1F70E94B8010C947F
:1000A0006B020C94000087E791E00E94D9000C9449
:1000B000590090938B0180938A010895E0918A0101
:1000C000F0918B010190F081E02D0994E0918A017B
:1000D000F0918B010280F381E02D0994E0918A0177
:1000E000F0918B010480F581E02D0994E0918A0163
:1000F000F0918B010680F781E02D0994E0918A014F
:10010000F0918B010084F185E02D0994E0918A0142
:10011000F0918B010284F385E02D0994E0918A012E
:10012000F0918B010484F585E02D09949091C00035
:1001300095FFFCCF8093C60008950C949600CF9352
:10014000DF93EC018991882319F00E949600FACF81
:10015000DF91CF910895672B682B692B19F484E800
:1001600091E002C08FE791E00C949F008AE00C942C
:1001700096000F9300E120E040E951E00E94FF006B
:1001800080E991E00F910C949F000F930AE020E02A
:1001900040E951E00E94FF0080E991E00F910C944A
:1001A0009F0040E951E00E94A30180E991E00C9496
:1001B0009F0080918C0190918D01A0918E01B09152
:1001C0008F01892B8A2B8B2BB9F41092C50087E6FF
:1001D0008093C40088ED8093C1008EE08093C200BC
:1001E00081E090E0A0E0B0E080938C0190938D01DD
:1001F000A0938E01B0938F0180E091E008952F923B
:100200003F924F925F926F927F928F929F92AF92A6
:10021000BF92CF92DF92EF92FF920F93CF93DF9333
:1002200000D000D01F92CDB7DEB74B015C011A01A0
:100230000A3039F0C12CD12CE12C30E1F32E00E151
:1002400007C0C12C9AECD92E9AE9E92E9BE3F92E2E
:1002500081149104A104B10459F471E0720F7D83FB
:10026000F101E20FF11D27FDFA9580E380834DC077
:10027000412C512C32012D83802F90E0A0E0B0E082
:1002800089839A83AB83BC83C501B401A70196011E
:100290000E942F02411451046104710429F42115B4
:1002A000310541055105D1F06D816F5FAD818A2F18
:1002B000AA0F990BF101E80FF91F0A3039F02A3023
:1002C00031054105510510F077E301C070E3720F6D
:1002D00070836D83412C512C32014394C701B601C8
:1002E0000E941F02861A970AA80AB90AC701B60116
:1002F00029813A814B815C810E942F0269017A0138
:10030000232B242B252B09F0BFCFF101BD81EB0F4F
:10031000F11DB7FDFA9510820F900F900F900F907E
:100320000F90DF91CF910F91FF90EF90DF90CF90E2
:10033000BF90AF909F908F907F906F905F904F9005
:100340003F902F9008950F9397FF0CC02DE2FA0174
:10035000208390958095709561957F4F8F4F9F4F2B
:1003600021E001C020E00AE00E94FF000F91089503
:100370000E9453008EE091E00E947E008BE191E0AC
:100380000E947E008DE291E00E947E0085E691E071
:100390000E947E006FEF7FEFCB010E945E008CE732
:1003A0000E94660060E070E0CB010E945E008CE776
:1003B0000E94660061E070E080E090E00E945E00D4
:1003C0008CE70E94660062E070E080E090E00E94AE
:1003D0005E0082E691E00E947E008EE691E00E943F
:1003E0007E006FEF7FEFCB010E946E008CE70E94D2
:1003F000660060E070E080E090E80E946E008CE7AC
:100400000E9466006FEF7FEF8FEF9FE70E946E0004
:100410008CE70E9466006FEF7FEFCB010E947600B1
:100420008CE70E9466006FEF7FEFCB010E94860091
:1004300082E691E00E947E0080E090E00895DB017A
:100440008F939F930E945102BF91AF91A29F800D05
:10045000911DA39F900DB29F900D11240895A1E2CC
:100460001A2EAA1BBB1BFD010DC0AA1FBB1FEE1F2E
:10047000FF1FA217B307E407F50720F0A21BB30B79
:10048000E40BF50B661F771F881F991F1A9469F7F5
:1004900060957095809590959B01AC01BD01CF0151
:1004A00008950E945C02A59F900DB49F900DA49F9B
:1004B000800D911D11240895A29FB001B39FC0012A
:1004C000A39F700D811D1124911DB29F700D811D80
:0A04D0001124911D0895F894FFCF48
:1004DA00AB009D00D100C5009F00B900B60054656D
:1004EA007374204F75743A3C320A00426F6F6C7312
:1004FA003A205B547C467C547C545D0A00496E74F5
:10050A00733A20205B2D317C2D3231343734383325
:10051A003634387C323134373438333634377C34F5
:10052A003239343936373239357C464646464646BC
:10053A0046465D0A00426F6F6C733A205B00496E53
:10054A0074733A20205B00636F6E736F6C6500747E
:0A055A007275650066616C73650040
:00000001FF
