:100000000C9434000C9451000C9451000C94510049
:100010000C9451000C9451000C9451000C9451001C
:100020000C9451000C9451000C9451000C9451000C
:100030000C9451000C9451000C9451000C945100FC
:100040000C9451000C9451000C9451000C945100EC
:100050000C9451000C9451000C9451000C945100DC
:100060000C9451000C94510011241FBECFEFD8E026
:10007000DEBFCDBF11E0A0E0B1E0E4EDF1E102C0F0
:1000800005900D92AC37B107D9F722E0ACE7B1E0AB
:1000900001C01D92A831B207E1F70E94F1070C944C
:1000A000E8080C940000242F30E0260F311D283082
:1000B000310524F0440F4E5F481B02C0481B4E5FC1
:1000C000842F860F0895882339F09FEF90930402C0
:1000D000909303028093050283E891E008950895C8
:1000E0008F579F4FFC016081062E000C770B6F5FCE
:1000F0007F4F072E000C880B990B08958E579F4F4A
:10010000FC0180810895FC01EF57FF4F20812F5F94
:100110002083FC0134E02302E00DF11D1124408313
:100120005183628373830895FC01EF57FF4F208151
:100130003FEF320F3083FC0134E02302E00DF11D6C
:10014000112460817181828193810895FC01EF57B0
:10015000FF4F61E070E080E090E020812F3F19F0D8
:1001600060E070E0CB0108950895FC016281615068
:100170006283862F660F990BAA0BBB0B8095909517
:10018000A095B095BC01CD01662797FD63957727B3
:10019000882799270895DC01ED91FC91119712961B
:1001A0008C91B4E08B02E00DF11D1124608171810E
:1001B000828193810895DC01ED91FC911197EF57B5
:1001C000FF4F90819F5F12969C93089590938101B9
:1001D0008093800180E891E00E94DB0080E891E05C
:1001E0000895909381018093800180E891E00E94BE
:1001F000DB0080E891E00895CF92DF92EF92FF92CA
:10020000CF93DF93EC010E94DB008BE50E947D061B
:100210008A8181508A8387FD14C0E881F98194E046
:100220008902E00DF11D1124C080D180E280F380AD
:1002300082E591E00E949506C701B6010E949D06E5
:10024000E7CF84E591E0DF91CF91FF90EF90DF90D1
:10025000CF900C949506FC01EF57FF4F2081FC01D5
:1002600034E02302E00DF11D11246081718182814F
:1002700093810895FC01EF57FF4F2081DC0134E0AA
:100280002302A00DB11D11244D915D916D917C91C2
:100290002F5F2083FC0134E02302E00DF11D1124C7
:1002A00040835183628373830895FC01EF57FF4FAE
:1002B0002081FC0134E02302E00DF11D1124808136
:1002C0009181A281B38180959095A095B09580830E
:1002D0009183A283B3830895FC01EF57FF4F2081E0
:1002E0003FEF320F3083FC0144E03402E00DF11D9A
:1002F0001124DC0134E02302A00DB11D1124408142
:100300005181628173818D919D910D90BC91A02D41
:1003100084239523A623B72380839183A283B38369
:100320000895FC01EF57FF4F20813FEF320F3083DC
:10033000FC0144E03402E00DF11D1124DC0134E045
:100340002302A00DB11D112440815181628173816E
:100350008D919D910D90BC91A02D842B952BA62B5A
:10036000B72B80839183A283B3830895FC01EF5759
:10037000FF4F20813FEF320F3083FC0144E0340215
:10038000E00DF11D1124DC0134E02302A00DB11DAC
:10039000112440815181628173818D919D910D90D5
:1003A000BC91A02D84279527A627B727808391830A
:1003B000A283B3830895FC01EF57FF4F2081FC0116
:1003C00034E02302E00DF11D112480819181A2818E
:1003D000B381B095A095909581959F4FAF4FBF4F3A
:1003E00080839183A283B3830895FC01EF57FF4F6D
:1003F0002081FC0134E02302E00DF11D11248081F5
:100400009181A281B3810196A11DB11D8083918349
:10041000A283B3830895FC01EF57FF4F2081FC01B5
:1004200034E02302E00DF11D112480819181A2812D
:10043000B3810197A109B10980839183A283B3831A
:100440000895FC01EF57FF4F20813FEF320F3083BB
:10045000FC0144E03402E00DF11D1124DC0134E024
:100460002302A00DB11D112440815181628173814D
:100470008D919D910D90BC91A02D840F951FA61F6D
:10048000B71F80839183A283B38308950F931F9333
:10049000FC01EF57FF4F20813FEF320F3083FC010B
:1004A00004E03002E00DF11D1124DC0114E0210212
:1004B000A00DB11D112440815181628173818D9104
:1004C0009D910D90BC91A02D8A019B01081B190BD9
:1004D0002A0B3B0B00831183228333831F910F91DF
:1004E0000895FC01EF57FF4F20813FEF320F30831B
:1004F000FC0144E03402E00DF11D1124DC0134E084
:100500002302A00DB11D112420813181428153812C
:100510006D917D918D919C910E947D086083718386
:10052000828393830895CF93DF93FC01EF57FF4FAE
:1005300020816FEF620F6083FC0134E02302E00D45
:10054000F11D112420813181428153812115310512
:100550004105510531F487E591E0DF91CF910C948D
:100560009506EC0174E06702C00DD11D112468816D
:1005700079818A819B810E94AF08288339834A83CD
:100580005B83DF91CF910895CF93DF93FC01EF5709
:10059000FF4F20813FEF320F3083EC0144E0340203
:1005A000C00DD11D1124FC0134E02302E00DF11D2A
:1005B0001124688179818A819B81208131814281E6
:1005C00053810E94AF08688379838A839B83DF917C
:1005D000CF9108950F931F93FC01EF57FF4F208198
:1005E0003FEF320F3083FC0104E03002E00DF11DDB
:1005F0001124DC0114E02102A00DB11D1124408161
:100600005181628173818A019B010C9004C0000FAB
:10061000111F221F331F0A94D2F7008311832283F4
:1006200033831F910F9108950F931F93FC01EF5790
:10063000FF4F20813FEF320F3083FC0104E0300296
:10064000E00DF11D1124DC0114E02102A00DB11D0B
:10065000112440815181628173818A019B010C9038
:1006600004C035952795179507950A94D2F700830E
:100670001183228333831F910F9108950F931F934A
:10068000FC01EF57FF4F20813FEF320F3083FC0119
:1006900044E03402E00DF11D1124DC0134E02302BA
:1006A000A00DB11D112441E050E060E070E00D911B
:1006B0001D912D913C9180819181A281B381081778
:1006C00019072A073B0719F040E050E0BA014083C0
:1006D0005183628373831F910F9108950F931F932A
:1006E000FC01EF57FF4F20813FEF320F3083FC01B9
:1006F00044E03402E00DF11D1124DC0134E023025A
:10070000A00DB11D112441E050E060E070E00D91BA
:100710001D912D913C9180819181A281B381081717
:1007200019072A073B0719F440E050E0BA0140835B
:100730005183628373831F910F9108950F931F93C9
:10074000FC01EF57FF4F20813FEF320F3083FC0158
:1007500044E03402E00DF11D1124DC0134E02302F9
:10076000A00DB11D112441E050E060E070E00D915A
:100770001D912D913C9180819181A281B38180173F
:100780009107A207B3071CF040E050E0BA01408394
:100790005183628373831F910F9108950F931F9369
:1007A000FC01EF57FF4F20813FEF320F3083FC01F8
:1007B00044E03402E00DF11D1124DC0134E0230299
:1007C000A00DB11D112441E050E060E070E00D91FA
:1007D0001D912D913C9180819181A281B381081757
:1007E00019072A073B071CF040E050E0BA0140839C
:1007F0005183628373831F910F9108950F931F9309
:10080000FC01EF57FF4F20813FEF320F3083FC0197
:1008100044E03402E00DF11D1124DC0134E0230238
:10082000A00DB11D112441E050E060E070E00D9199
:100830001D912D913C9180819181A281B3810817F6
:1008400019072A073B071CF440E050E0BA01408337
:100850005183628373831F910F9108950F931F93A8
:10086000FC01EF57FF4F20813FEF320F3083FC0137
:1008700044E03402E00DF11D1124DC0134E02302D8
:10088000A00DB11D112441E050E060E070E00D9139
:100890001D912D913C9180819181A281B38180171E
:1008A0009107A207B3071CF440E050E0BA0140836F
:1008B0005183628373831F910F910895CF92DF92CA
:1008C000EF92FF920F931F93CF93DF93FC01862F3C
:1008D00083708F010F571F4FD8019C919F01B4E087
:1008E0009B02200D311D1124E901C880D980EA80C6
:1008F000FB809150292F280F91E0920FAF01D4E097
:100900009D02400D511D112464FBAA27A0F9B0E0FF
:1009100096E0AA0FBB1F9A95E1F7962F96959695AC
:10092000937038E0939FB00111246A2B862B082E18
:10093000000C990BAA0BBB0BEA0188839983AA834D
:10094000BB8382E0820FDF01D4E08D02A00DB11DD8
:100950001124CD92DD92ED92FC92139793E0920FC9
:10096000D8019C93DF01C4E09C02A00DB11D1124AD
:10097000E058FF4F4081042E000C550B660B770B9F
:100980004D935D936D937C9313979083DF91CF91FB
:100990001F910F91FF90EF90DF90CF900895CF922D
:1009A000DF92EF92FF929C01862F8770F901EF573B
:1009B000FF4F9081D90144E09402A00DB11D112494
:1009C000CD90DD90ED90FC909150980F41E0490F53
:1009D000D90154E04502A00DB11D1124462F4877DE
:1009E000482B042E000C550B660B770B4D935D9333
:1009F0006D937C93139782E0890FD90144E08402C0
:100A0000A00DB11D1124CD92DD92ED92FC921397B1
:100A10009D5F9083D90154E09502A00DB11D112472
:100A200031974081042E000C550B660B770B4D93CC
:100A30005D936D937C9313979083FF90EF90DF907D
:100A4000CF9008958F929F92AF92BF92CF92DF92F4
:100A5000EF92FF92CF93DF939C01DC01A058BF4F30
:100A60008C91F90164E08602E00DF11D11243897A4
:100A70009081892F8695869586958770492F477036
:100A8000F901EF57FF4F96FB552750F996FF0FC01E
:100A900090816FEF690F6083E90174E09702C00DE8
:100AA000D11D112488809980AA80BB8003C0812C2D
:100AB000912C54019081E90164E09602C00DD11D92
:100AC000112468816C936FEF690FD90174E067029C
:100AD000A00DB11D1124CD90DD90ED90FC909350B0
:100AE000941B981B642F70E0680F711D68307105AE
:100AF0000CF0941B9083552371F080818F5F80836D
:100B0000D90194E08902A00DB11D11248D929D920E
:100B1000AD92BC92139780818F5F8083F90164E06E
:100B20008602E00DF11D1124C082D182E282F3829F
:100B3000DF91CF91FF90EF90DF90CF90BF90AF907B
:100B40009F908F9008950F931F93CF93DF938C0105
:100B5000862FF801E058FF4FC0810C2E000CDD0BF2
:100B6000FE013297EE0FFF1FEE0FFF1FE00FF11F88
:100B70006081462F477066956695669567700E94FE
:100B80005300F801EF57FF4F90812FEF290F20837B
:100B9000C81BD109CC0FDD1FCC0FDD1FC00FD11F2B
:100BA000F80184E09802E00DF11D1124488159817B
:100BB0006A817B8180819181A281B381840F951F9D
:100BC000A61FB71F88839983AA83BB83DF91CF9128
:100BD0001F910F9108950F931F93CF93DF938C0173
:100BE000862FF801E058FF4FC0810C2E000CDD0B62
:100BF000FE013297EE0FFF1FEE0FFF1FE00FF11FF8
:100C00006081462F477066956695669567700E946D
:100C10005300C81BD109CC0FDD1FCC0FDD1FC00F47
:100C2000D11F488159816A817B81F801EF57FF4FBD
:100C300080818F5F8083F80194E08902E00DF11DCF
:100C400011244083518362837383DF91CF911F917D
:100C50000F9108950F931F93CF93DF938C01862FED
:100C6000F801E058FF4FC0810C2E000CDD0BFE0197
:100C70003297EE0FFF1FEE0FFF1FE00FF11F608195
:100C8000462F477066956695669567700E9453007B
:100C9000F801EF57FF4F90812FEF290F2083F801C4
:100CA00024E09202E00DF11D112440815181628106
:100CB0007381C81BD109CC0FDD1FCC0FDD1FC00F06
:100CC000D11F488359836A837B83DF91CF911F9122
:100CD0000F91089589E691E00E94F0060C94700649
:100CE00090930702809306020895E0910602F09126
:100CF00007020190F081E02D0994E0910602F09145
:100D000007020280F381E02D0994E0910602F09140
:100D100007020480F581E02D0994E0910602F0912C
:100D200007020680F781E02D0994E0910602F09118
:100D300007020084F185E02D0994E0910602F0910C
:100D400007020284F385E02D0994E0910602F091F8
:100D500007020484F585E02D09949091C00095FF69
:100D6000FCCF8093C60008950C94AD06CF93DF931B
:100D7000EC018991882319F00E94AD06FACFDF912A
:100D8000CF910895672B682B692B19F486E791E0C2
:100D900002C081E791E00C94B6068AE00C94AD069F
:100DA0000F9300E120E04CE052E00E9416078CE037
:100DB00092E00F910C94B6060F930AE020E04CE00D
:100DC00052E00E9416078CE092E00F910C94B60658
:100DD0004CE052E00E94DC078CE092E00C94B606F6
:100DE0008091080290910902A0910A02B0910B0231
:100DF000892B8A2B8B2BB9F41092C50087E6809340
:100E0000C40088E18093C10086E08093C20081E045
:100E100090E0A0E0B0E08093080290930902A093D4
:100E20000A02B0930B0280E091E008954F925F9226
:100E30006F927F928F929F92AF92BF92EF92FF92AA
:100E40000F93CF93DF93CDB7DEB729970FB6F89402
:100E5000DEBF0FBECDBF2B013C017A0129870A30CE
:100E600009F493C0672B682B692B09F480C000E15B
:100E7000812C912CA12C90E1B92E19821A821B820F
:100E80001C82802F90E0A0E0B0E08D839E83AF8332
:100E9000B887C301B201A50194010E948D080A30F0
:100EA00009F589819A81AB81BC81892B8A2B8B2B97
:100EB00029F4211531054105510539F1F7019985CD
:100EC000E90FF11D97FDFA9580E3820F80839F5F04
:100ED000998781E090E0A0E0B0E089839A83AB83BA
:100EE000BC8313C099859F5FF701A985EA0FF11DA7
:100EF000A7FDFA952A3031054105510510F087E329
:100F000001C080E3820F80839987C501B4010E94EC
:100F10007D08461A570A680A790AC501B4012D816D
:100F20003E814F8158850E948D0849015A01232B2B
:100F3000242B252B09F0ADCFF701B985EB0FF11D5F
:100F4000B7FDFA95108229960FB6F894DEBF0FBE52
:100F5000CDBFDF91CF910F91FF90EF90BF90AF90F9
:100F60009F908F907F906F905F904F90089580E357
:100F7000A985A8300CF7F7019985E90FF11D97FDB8
:100F8000FA9580839F5F9987F3CF672B682B692B36
:100F900059F4F701B985EB0FF11DB7FDFA9580E320
:100FA0008083BF5FB987C8CF812C8AEC982E8AE9ED
:100FB000A82E8BE3B82E61CF0F9397FF0CC02DE2C4
:100FC000FA01208390958095709561957F4F8F4FA2
:100FD0009F4F21E001C020E00AE00E9416070F9118
:100FE00008950E946A068EE091E00E94950686E2CE
:100FF00091E00E94950680E20E94630090937F0139
:1010000080937E010E94E60090937D0180937C0195
:101010000E94FC0041E050E060E070E080917E01C1
:1010200090917F010E94830042E050E060E070E018
:1010300080917E0190917F010E94830080917C01CC
:1010400090917D010E94FC0080917E0190917F0132
:101050000E94210280917C0190917D010E94FC0000
:1010600080917E0190917F010E943A0180917C01E4
:1010700090917D010E94FC0080917E0190917F0102
:101080000E94710280917C0190917D010E94FC0080
:1010900080917E0190917F010E942B01AB01BC01E8
:1010A000415051096109710980917E0190917F0140
:1010B0000E94830080917C0190917D010E94FC0040
:1010C00080917E0190917F010E94460280917C0177
:1010D00090917D010E94FC0080917E0190917F01A2
:1010E0000E94940080917C0190917D010E94FC00FF
:1010F0000E94A50680E090E00895DB018F939F9306
:101100000E94CE08BF91AF91A29F800D911DA39F19
:10111000900DB29F900D11240895A1E21A2EAA1BE2
:10112000BB1BFD010DC0AA1FBB1FEE1FFF1FA21797
:10113000B307E407F50720F0A21BB30BE40BF50B94
:10114000661F771F881F991F1A9469F7609570951D
:10115000809590959B01AC01BD01CF010895052EAE
:1011600097FB1EF400940E94C60857FD07D00E940A
:101170008D0807FC03D04EF40C94C608509540959A
:10118000309521953F4F4F4F5F4F08959095809533
:10119000709561957F4F8F4F9F4F08950E94D9089A
:1011A000A59F900DB49F900DA49F800D911D1124BB
:1011B0000895A29FB001B39FC001A39F700D811D30
:1011C0001124911DB29F700D811D1124911D089550
:0411D000F894FFCFC1
:1011D400C206B406E806DC06B606D006CD0654659B
:1011E400737420564D204F706572616E6420537481
:1011F40061636B3A0A005B205D5B20322031205D25
:101204005B2033205D5B20332033205D5B2039205D
:101214005D5B20382039205D5B2031205D5B205DE3
:101224000A002000205D004469766973696F6E20AE
:101234006279207A65726F0A00636F6E736F6C65F2
:0C12440000747275650066616C736500D3
:00000001FF
